:020000040800F2
:100000006811002001010008234600085B40000839
:1000100021460008892F00087948000800000000E8
:10002000000000000000000000000000274600085B
:100030008B2F00080000000025460008F946000844
:100040001B0100081B0100081B0100081B01000820
:100050001B0100081B0100088D2F00081B01000870
:100060001B0100081B0100081B0100081B01000800
:100070001B0100081B0100081B0100081B010008F0
:100080001B0100081B0100081B0100081B010008E0
:100090001B0100081B0100081B0100081B010008D0
:1000A0001B0100081B0100081B0100081B010008C0
:1000B0001B0100081B010008000000001B010008D4
:1000C0001B01000800000000000000001B010008E8
:1000D000000000001B0100081B01000800000000D8
:1000E0001B0100081B0100081B010008DFF80CD0F1
:1000F00002F038FF00480047C97900086811002065
:100100000648804706480047FEE7FEE7FEE7FEE7B1
:10011000FEE7FEE7FEE7FEE7FEE7FEE75B470008D7
:10012000ED00000810B5F949C4074FF040434FF007
:10013000804205D08B66CB66C1E91C328A67CA67EC
:10014000840709D5C1F80031C1F80431C1E9423250
:10015000C1F81021C1F81421400709D5C1F8983120
:10016000C1F89C31C1E96832C1F8A821C1F8AC21BD
:1001700010BD2DE9F14F82B0002102988A468946D0
:10018000806F00287DD000220020401C0428FCDB6A
:1001900002984FF0000C00EBC203D3E90010A1FB62
:1001A0000167D3E9065400FB017701FB0077CDE935
:1001B0000067A646AE1B64EB0704AB460327A6FB0D
:1001C000075804FB078406FB0C44DDE90067AD1902
:1001D0007C41A5FB016704FB017405FB0045D3E9E5
:1001E0000C47341B65EB0705CDE900455D46A5FBD3
:1001F00005670324A6FB04580EFB0B770BFB0E7759
:1002000007FB048406FB0C44D3E91263761B63EB03
:1002100004034C18A4FB017C40EB000505FB01C561
:1002200004FB0055A7FB014C05FB01C507FB00556E
:10023000A4FB017C05FB01C504FB0054F6196341D6
:10024000DDE90045AD0045EA9475A400A4FB017CFE
:1002500005FB01C104FB0014F01B73EB040103D583
:100260000023404263EB0101BAEB000479EB010388
:1002700001DA82468946521C032A85DB50464946EC
:1002800000E010E002F03EFCA149896B02F043FA65
:1002900002F08CFC9D4AD2F80C2203B09200BDE81B
:1002A000F04F02F05DB9002003B00146BDE8F08FC9
:1002B0002DE9F14F0020009A0146926FF2B300241D
:1002C0000022521C042AFCDB009A02EBC405AA4659
:1002D000D5E90029A2FB023CD5E906769E46FB1A29
:1002E0000325A3FB057809FB02CC02FB09CB66EBD7
:1002F0000B0606FB05854FF0000C03FB0C5617EBB5
:100300000E03A3FB027C46EB0B0606FB02C203FBBB
:100310000923DAE90C25BA1AAB4103D5002552426C
:1003200065EB0303851A71EB030501DA10461946E4
:10033000641C032CC4DB02F0E5FB00E00EE0744912
:10034000896B02F0E8F902F031FC704AD2F80C2215
:10035000BDE8F84F02EB420202F002B9002001466C
:10036000BDE8F88F2DE9FE43684D80460024D5F89E
:1003700010626F4605EBC4013246D1E9020102F07A
:10038000D0F805EB8401B1F884100904401847F84F
:10039000240004F10104032CECDB5C4898210830B4
:1003A00002F017F90120FFF7BDFE95F8E801019969
:1003B000042807D1D5F81802B0F5201F02DD05206A
:1003C00085F8E801524C0098636AC11A01D40E46C0
:1003D00000E01E1A0198A26A801A01D4074601E0C3
:1003E000019FD71BBE4206DD002901D4084606E066
:1003F0000098181A03E0002801D50198101A029AF3
:10040000E16A521A01D4134601E0029BCB1A8342DF
:1004100005DB002A01D4104601E00298081AD8F83A
:10042000241006F0E2FDD5F81812814206DD032102
:10043000684607F0D1F9022007F020FA00986062C0
:100440000198A0620298E062BDE8FE83304AC2E9EA
:10045000020170472E4AC2E9060170472C4AC2E9E0
:1004600004017047294AD2F8E0310360D2E97402EE
:10047000C1E900027047254AD2F8E0310360D2E9B1
:100480007602C1E9000270472DE9FE47814600204F
:10049000EA468A6F22B901EB800339F91020DA6746
:1004A00001EB800239F91030D46F1D1B4AF820503F
:1004B000136E9D4200DD1566D36E9D4200DAD5664F
:1004C0000123002422464FEAE578A3FB056704FBDD
:1004D000057403FB0844334602EB420601EBC606F3
:1004E00006EBC00CDCE90076FF186641CCE900762B
:1004F000521C042AE9DB401C0328CADB886F401C1D
:1005000088670120C1F89000BDE8FE87A80600209A
:100510000809002030B5002302EB830550F8234082
:100520005B1CEC66032BF7DBC2F88810916F79B186
:10053000002102EB810450F82130E56F5B1B00D5F0
:100540005B42256E9D4200DA2366491C0329F0DBDD
:10055000906F401C90670120C2F8900030BD10B52C
:1005600000210B4600EB8102491CD46ED467136650
:100570000329F7DBD0F8881040F8783FC0E905136D
:1005800010BDD0E92210081A70470146D1E91802BF
:10059000824200DB1046896E814200DB08467047CC
:1005A0002DE9F0478046501E012686408946C2F15B
:1005B0002007404601F0D4FF04460D464046494618
:1005C0003A4601F0AEFF3A4601F0CAFFB04203DD01
:1005D000641C45F1000505E07142884202DA641EA0
:1005E00045F1FF3520462946BDE8F087F749002050
:1005F000086248628862C862086448648864C864A3
:10060000086348638863C863086548658865C8658A
:10061000704730B5EE4AD2F8483223B1D2E990544F
:100620002D1A8C4101DAC2E990015B1CC2F84832F4
:1006300030BD30B5E64AD2F8583223B1D2E99454ED
:100640002D1A8C4101DAC2E994015B1CC2F85832C0
:1006500030BD30B5DE4AD2F828322BB1D2E9884518
:10066000041B71EB050401DAC2E988015B1CC2F8C6
:10067000283230BD30B5D64AD2F838322BB1D2E963
:100680008C45041B71EB050401DAC2E98C015B1C8B
:10069000C2F8383230BD2DE9F0470246CC4801257A
:1006A00008308046C36E016E046FC91A436E1B1B6F
:1006B0008B4200DB1946836ED8F87400181A884202
:1006C00000DB0146C14F6037F86B884204DA002432
:1006D00000F00AFA204687E7108E0124BC4EC005C0
:1006E0004FF000010ED5D6F880303068834209DB28
:1006F000B2F87420D20506D5D6F8B021824201DBCB
:10070000052400E00C4674B3600719D5AF48C8381B
:100710008146FFF72EFD000D40EA01300915C6E9BC
:100720007601D7E904321B1A8A4102DA0025FFF765
:10073000A1FF9821484601F04CFF0420FFF7F2FC8E
:10074000E0070ED04046FFF714FDC6E97C01D7E96B
:1007500006340246181A8C4103DA00251046FFF7CA
:1007600078FF284640E7FFE702203DE71EB5044634
:1007700090F83000C0F38110032804D19449201D63
:100780000831FFF781FE94F87400C0F3811003284C
:1007900005D18E4904F14800C839FFF775FED4F839
:1007A000B8008B4AC0F38113A0326946032B0FD0E7
:1007B000C0F3411003281AD1002004EB8003D3F8C2
:1007C000A0309B1341F82030401C0328F5DB09E0E2
:1007D000002004EB4003B3F98C3041F82030401C7A
:1007E0000328F6DB6846D4F8C010FFF793FE1EBD61
:1007F0002DE9F04705460020296BCA0567D501F0B1
:100800005001402900D1012095F8741001F05001E9
:10081000402900D1012095F8B8106D4C01F050012D
:10082000402900D030B100F05FF90020C4F8E001A9
:1008300084F8E801654ED4F80812E86A603681420F
:1008400025D0C4F808020A28306B0ADA400020607C
:10085000716B491CC4F80C1202F046F908F07AF9E1
:1008600004E02060706BC4F80C02B06BC4F8140292
:10087000D4F80C02C0F11000C4F810024FF480400C
:10088000C4F8180296F8341019208840F0632846FE
:10089000FFF76CFF94F8E811DFF8349105274FF06B
:1008A000020809F1A009072911D2DFE801F00411BB
:1008B00027305E7E8500D4F8E001411CC4F8E011C9
:1008C0000A2804DB00F010F9012084F8E80186E032
:1008D000D4F89800012810D12846FFF7DCFE10B1AB
:1008E000012803D004E084F8E87101E084F8E8818D
:1008F0004846FFF734FEFFF779FE70E0032084F8E6
:10090000E8012846FFF72EFD00F0EEF867E02846E4
:10091000FFF7C1FEF0B3012861D1B5F8B8004FF080
:100920000403C00515D54846FFF72FFE0146C01742
:10093000C4E97410D6E902C2BCEB0101824102DABB
:1009400084F8E87108E04846FFF71BFE316A8842E8
:1009500002D384F8E83124E0F4E97601FFF769FE78
:10096000D4E90601FFF755FE39E0B5F8B800C00537
:100970000BD54846FFF709FE0146C017C4E97410BD
:10098000D6E90232591A824108DB2846FFF783FE76
:1009900000B100E002E0012803D020E084F8E87113
:1009A0001DE02846FFF7DEFCD6E7062084F8E801C4
:1009B000012006F063FF0DE02846FFF76CFE0128DA
:1009C00001D038B10BE084F8E88108E0A8080020E5
:1009D000A806002000F088F84846FFF7C0FD002078
:1009E00002E610B500214010002802D001F10101FB
:1009F000F9DC454C4FF0010001F1010100FA01F072
:100A0000C4E90C0102F070F808F0A4F8A06394F8AF
:100A1000341019208840E06310BD10B54FF41871F0
:100A20003A4801F0D6FD4021374801F0D2FD0720B9
:100A3000FFF778FB344840F2DC510022C0E906128F
:100A40001421C0E902124FF41671C0E904123049B2
:100A50002E4C01620120C4F8E4011920FFF7C1FF08
:100A60000020C4F8080210BD10B54FF418712748D3
:100A700001F0AFFD0720FFF755FB244801210022BC
:100A8000C0F8E41180F8E8110321012006F0ECFE23
:100A900007226421AFF2A720BDE8104006F020BD78
:100AA00010B5012006F0EAFEAFF2BB20BDE8104011
:100AB00006F040BF10B5FFF7B0FF002805D1AFF238
:100AC0005700BDE8104006F093BD10BD10B5FFF70C
:100AD000E7FFAFF26B00BDE8104006F051BF0B49D5
:100AE000D1E97C0170477047084810B5982108305B
:100AF00001F06FFD9821074801F06BFDBDE8104043
:100B00000520FFF70FBB000008090020A806002001
:100B10000008AF2FE00700202DE9FC5F0D460026FE
:100B2000416B99469246B046002904DBD0F8BC00E0
:100B3000032800D10126FF492422081F01F022FDCD
:100B4000FC4FC03F0024C7F8E05007EB8400D0F80A
:100B5000BC10404601F055FD641C80460A2CF4DBB5
:100B6000F54901F0D8FDF54C80464FF0C80BC7F8A9
:100B7000E400BAF1320F21DB4846C7F81CB101F09E
:100B8000B3FF00900190EE49284601F0C4FD0199A1
:100B900001F08FFD214601F0BEFD0446BAF57A7FD3
:100BA00033DBE8492846009C01F0B5FD214601F001
:100BB00080FDE24901F0AFFD044626E041F28831B4
:100BC00099FBF1F04042D7F81C1100EB800040186F
:100BD000C7F81C0102D50020C7F81C01484601F0E7
:100BE00083FF8246D849284601F095FD514601F021
:100BF00060FD214601F08FFD0446D7F81C0120B9A5
:100C0000D7F82801012800D10024D7F8200100B12D
:100C10002C46CE49894500D12C4614F0FF4F11D007
:100C20004046C7F8E880414601F03DFD20F0004015
:100C3000C74902F04DF822D2D7F8B80010F0FF4FA4
:100C400003D01CE0D7F8E800EDE7C6B14846C7F886
:100C50001CB101F06DFF04460E46284601F0E6FF88
:100C60000022BC4B01F0BAFE2246334601F044FE9E
:100C70000022B94B01F0B2FE02F004F8044620460F
:100C8000BDE8FC9F2DE9F04FABB04FF0000AA94F33
:100C9000CDF810A0C03FCDF814A0CDF818A00446A0
:100CA000D7F82011022003297DD0002620AD07EBC4
:100CB0008600D0F8A80001F017FF6FF01D0101F0C9
:100CC00068FD45F82600761C042EF0DB0FA805F021
:100CD000C5FE24A805F008FF964B24AA183B0FA9CF
:100CE0002046279300F0F4F9064604F1180005F0B9
:100CF00059FF82099548D7F83031834200DB03461B
:100D000031462046FFF708FFBB4607F1B806D7F883
:100D1000EC1001F0CEFC30600BA805F09FFE13A98B
:100D20000BA806F070FB83480FAA3C300BA90646BF
:100D300006F0B0F931460BA806F091F900210DF14B
:100D40003C080DF14C090DF1100E0022134610461F
:100D500001EB410C0CEB000759F8276008EB80070A
:100D6000401C7F680328C6FB0723F3DB900F40EA93
:100D700083004EF82100491C0329E6DBDBF8200143
:100D80005F4600287DD05046CDF818A0404201F0C3
:100D9000ABFE6FF01D09494601F0FBFC04F048FD75
:100DA000D046564600E074E0CDE9000A0698CDF83A
:100DB00008A0404201F098FE494601F0EAFC07F025
:100DC00005FE0390D7F8300141F2883190FBF1F035
:100DD0004FF0804A01F088FE28902990069801F093
:100DE00083FEDFF878B1594601F095FC299901F0AE
:100DF00092FC514601F08FFC01F0ABFE40000690E2
:100E0000DDF8A0A001F070FE594601F052FC5146F9
:100E100001F04FFC01F09DFE069001F065FE494691
:100E200001F0B7FC04F004FDCDE907060996069829
:100E300001F05AFE494601F0ACFC07F0C7FD0A90EC
:100E40001CAA694620A806F07DF96A4607A91CA8D5
:100E500006F078F9D4F8BC00EA46002810DD002638
:100E60001E215AF8260045F8260001F092FC01F0F8
:100E700070FE07EB8601761CC1F8A800042EEFDB9C
:100E800000E00BE0D4F8BC004FF0FF3503280AD196
:100E900006E0C7F820012BB0BDE8F08F069875E793
:100EA00001F007FBF0B357F8A80F01F01DFE4E4606
:100EB000494601F06EFC1C90786801F015FE314641
:100EC00001F067FC1D90B86801F00EFE314601F09C
:100ED00060FC1E90F86801F007FE314601F059FCF5
:100EE0001F90B86FA83F0028D5D0D7F8B800294682
:100EF000A83701F04EFC04F09BFC1E2101F049FCD8
:100F000001F027FEC7E90008C7F8088029463869BC
:100F100001F03FFC07F05AFD1E2101F03AFC01F000
:100F200018FE00E01CE0F860D4F8C010A83F279835
:100F300044E00000080A00200000204100409C45D9
:100F400000004843000048420000C84340420F00F0
:100F50000E2DB23D000079400088B340E1023747D2
:100F60002946D7F8B80001F014FC04F061FCCDE983
:100F70000708CDF824802946D7F8B80001F009FC0D
:100F800007F024FD0A906A4607A920A806F0DAF8BF
:100F9000684606F094F9002556461E2156F82500AD
:100FA00001F0F7FB01F0D5FD07EB85016D1CC1F8E1
:100FB000A800042DF1DBD4F8C010279806F0B6FB8A
:100FC000D7F8200100288FD0401E62E770B590F856
:100FD000B810664ACC064FF000034FF0030101D46D
:100FE000C2E94813B0F82041E40509D4048EE405B1
:100FF00003D5B0F87440E40502D4C2E948131AE0FE
:10100000D2F8341139B1D0E93013C91A4FF47A73D8
:10101000B1FBF3F105E0D0F8B01044F62064A14232
:1010200002DBC2F830110AE0D2F82C512944C2F890
:101030002C11A14201DA002070BDC2E94B31FFF74B
:1010400021FEF8E710B54FF49C71484801F0C1FA51
:10105000464C4FF080400021C4F8FC0044F8A80F33
:101060004248A83006F062FB4FF47A7060674FF098
:101070007E50606410BD3D49C1F8EC00002070470F
:101080003A49C1F82801002070473849C1F83401B5
:101090000020704704224FF41671AFF2CF0006F023
:1010A0001FBAAFF2D70006F045BC10B5FFF7CAFF74
:1010B0002E490020C1F82801C1F83401AFF22B00FD
:1010C000BDE8104006F094BAAFF2370006F058BC05
:1010D0002DE9FF470C4625491546074699463C220F
:1010E0000C31224801F04EFA204950225831A1F12A
:1010F000100001F047FA1D4E95E8070006F13C0389
:101100001B4D83E807001ECC06F1980080E81E0006
:10111000D6F82401401CC6F82401062802DD06206A
:10112000C6F82401C0F1060407F1A00818E006EB98
:1011300004116A464846483105F0ACFF04EB440010
:1011400006EB80016A46404605F01CFB074625F089
:10115000004120F0004001F0B1FD00D23D46641C8A
:10116000062CE4DB04B02846BDE8F08748090020DF
:10117000002474491FB501461022684601F002FAA6
:10118000F6489DE80E0080E80E00F5499DF80C0039
:1011900081F8B001002004B010BD1FB5EF490EC9A1
:1011A0008DE80E00EE49102291F8B0118DF80C1068
:1011B000694601F0E7F90020EDE72DE9F04F91B025
:1011C00000251821684601F004FA0024182106A819
:1011D00001F0FFF9E249A046C14691F8C00101289B
:1011E0007ED1D1F8B8B1D1F8B4A10022C2EBC200CF
:1011F00000EB4001DA4800EB810E9EF850000F90A2
:10120000002863D000215EE05EF82130DDE9006750
:101210006D1CD8170E939B197841CDE900300EEB69
:101220008100EDB243690D93DDE9027CDE17DB1925
:1012300046EB0C06CDE90236836ADDE9047CDE1755
:101240000C93DB1946EB0C06CDE90436C06B0E9B04
:10125000DDE9067C83FB0063360C46EA0346F6199B
:101260004CEB2343CDE906630D9BDDE9087C83FB52
:1012700000634FEA164646EA0346F6194CEB234351
:10128000CDE908630C9BDDE90A7C83FB00634FEA30
:10129000164646EA0346F6194CEB2343CDE90A63AA
:1012A00080FB00634FEA164646EA034616EB080841
:1012B00049EB23490444584501DA834602E050458E
:1012C00000DD8246491C0F9888429DDC521C052A8D
:1012D0008CDBA348AAEB0B01D0F8BC01814200E0F3
:1012E00053E052DBA5FB0872E01700260F9006FBC7
:1012F000082005FB09000E9084FB0410090C41EA4C
:1013000000410014CDE90C0106A800EBC601D1E9AB
:101310000002A0FB05BC02FB05C2002100FB012C62
:10132000684600EBC601D1E90002A0FB043802FBCD
:1013300004820F9900FB0120190C0CAA41EA004914
:101340004FEA204A92E80B0087EA010283EA00088C
:1013500052EA080212D07A1A63EB0003BBEB0900D1
:101360006CEB0A0C4FEA0C4141EA1041000401F019
:10137000A7F87B4901EB8601C1F8A401761C032E76
:10138000C2DB7748012180F8B01111B00020BDE820
:10139000F08FF8B5724D0E460446D5E96D01091A75
:1013A000052291FBF2F1301A90FBF1F0C0B28DF8FA
:1013B0000000042801D92020F8BDC0EBC00000EBDC
:1013C000400005EB800191F85000052816D0421C22
:1013D00081F850209DF80010C1EBC10101EB4101E3
:1013E00005EB810202EB8001CE63236842F82030D6
:1013F00060684861A06888620020F8BD01F1400380
:10140000181F1022194601F0BDF89DF800001022A7
:10141000C0EBC00000EB400005EB8000011D01F0B7
:10142000B1F89DF800001022C0EBC00000EB4000B6
:1014300005EB800000F11801143001F0A3F89DF8CD
:1014400000001022C0EBC00000EB400005EB800064
:1014500000F12C01283001F095F80420BAE730B5EE
:1014600085B0044603A9684605F076FB04A805F09C
:10147000FFFB02282BD0D4F8E4000399401A384926
:1014800091F8B02112B308B3D1F8A421009C80FBDD
:101490000232150445EA134222440092D1F8A821F1
:1014A000019C80FB0232150445EA1342224401925A
:1014B000D1F8AC11029A80FB0110030443EA1140F9
:1014C000104402900321684606F086F90CE0606B38
:1014D000032809D105F052FB30B168460399FFF7A4
:1014E00058FF08B9FFF769FE05B0002030BD10B500
:1014F0004FF4E2711A4801F06CF819481949C0F824
:10150000B4114FF4AA01C0F8B8114FF4A021C0F8EB
:10151000BC11012180F8C011002010BD1049C1F894
:10152000B801002070470E49C1F8B401002070478F
:101530000B49C1F8BC010020704758B10849D1F8E7
:10154000A4210260D1F8A8214260D1F8AC118160D9
:10155000002070470520704724207047240C00208D
:10156000800A00200000D8FF20B12D4981F8C00179
:101570000020704724207047294B93F8B1010028C0
:1015800018D0D3E96D10401A052190FBF1F000202E
:10159000C0EBC00101EB410103EB810191F8502048
:1015A00022B1002100E0491C8A42FCDC401C0528D5
:1015B000EEDB00207047082296211A4805F090BF04
:1015C000184806F0B7B910B5FFF791FF4FF49A73BA
:1015D00010221549154805F0D5FF20B9AFF22900B2
:1015E00006F006F808B1012010BD0D49012081F870
:1015F000B101002010BD10B5094C94F8B1010028CC
:1016000008D0084806F096F9AFF2550006F0B8F990
:1016100008B1012010BD002084F8B10110BD000008
:10162000800A00205F1400089B1100087511000853
:101630002DE9F043044699B01D4691460E46806858
:1016400001F052FA014601F034F88046606801F07A
:101650004BFA014601F02DF80746206801F044FAE4
:10166000014601F026F8394600F0CBFF414600F074
:10167000C8FF07F06FFA074620F000404FF08D4199
:1016800001F026FB7ED2306801F02EFA6FF01D08C3
:10169000414601F07EF80490706801F025FA414659
:1016A00001F077F80590B06801F01EFA414601F0AC
:1016B00070F80690F06801F017FA414601F069F8F9
:1016C00000260C960790206801F00EFA394601F0CA
:1016D00022F80D90606801F007FA394601F01BF816
:1016E0000E90A06801F000FA394601F014F80F904E
:1016F00010AA0CA904A805F025FD14A904A805F05A
:10170000BAFC6A4614A910A805F01CFD0199084608
:1017100000F0CFFF02990446084600F0CAFF2146B8
:1017200000F06FFFFE49884201DAFE4C0BE0FE49F3
:10173000884201DAFD4C06E0FD49884202DA4FF0AA
:101740007A5400E0FB4C484601F0CEF9FA4900F02B
:10175000E2FF214600F0ADFF0446089621460298BC
:1017600000F0A7FF09900198214680F0004000F0AA
:10177000A0FFCDE90A066A4604A908A805F0E2FC24
:101780006A4600E025E004A9104605F04FFC6846D3
:1017900005F053FD1E21009800F0FBFF01F0D9F980
:1017A00028601E21019800F0F4FF01F0D2F9686072
:1017B0001E21029800F0EDFF01F0CBF9A8601E2178
:1017C000039800F0E6FF01F0C4F9E86019B0BDE845
:1017D000F08396E80F0085E80F00F7E72DE9F05F4A
:1017E00005460C46806801F07FF9014600F061FF74
:1017F0000746686801F078F9014600F05AFF06468E
:10180000286801F071F9014600F053FF314600F0FD
:10181000F8FE394600F0F5FE07F09CF94FF07E59CE
:10182000002706464FF08048484505DCC4E900879C
:10183000A760E760BDE8F09FA86801F055F9314660
:1018400000F069FF82460146484600F02CFF4FF445
:101850000006B04200DA00204FF0FF3100F099FF9F
:1018600007F078F983464946504600F0CAFEB04278
:1018700000DA00204FF0FF3100F08BFF07F06AF92B
:101880008246686801F030F9014600F012FF064612
:10189000286801F029F9014600F00BFF314600F0FD
:1018A000B0FE07F057F906464845BFDD1E215046F9
:1018B00000F06FFF01F04DF92060686801F014F945
:1018C000314600F028FF594600F0F3FE1E2100F0DB
:1018D00060FF01F03EF96060286801F005F93146CB
:1018E00000F019FF594600F0E4FE944900F0E1FED3
:1018F00001F02FF9C4E902079CE72DE9F041054604
:101900000C46C06801F0F0F8014600F0D2FE8046B7
:10191000A86801F0E9F8014600F0CBFE07466868C8
:1019200001F0E2F8014600F0C4FE0646286801F026
:10193000DBF8014600F0BDFE314600F062FE39469C
:1019400000F05FFE414600F05CFEB0F5000F06DAE5
:101950004FF08040206000206060A0602DE007F024
:10196000F9F801464FF07E5000F0D5FE1E2100F040
:1019700010FF0646286801F0B7F8314600F099FEDE
:1019800001F0E7F82060686801F0AEF8314600F039
:1019900090FE01F0DEF86060A86801F0A5F831461D
:1019A00000F087FE01F0D5F8A060E86801F09CF82F
:1019B000314600F07EFE01F0CCF8E060BDE8F08139
:1019C00070B5044690F8300088B0400676D5A0691E
:1019D000002801DB014600E041424FF4803200263E
:1019E000574D91420BDAE169002900DA49429142F0
:1019F00005DA216A002900DA4942914260DB0028B9
:101A000000DA40424FF4C80188420BDCE06900284C
:101A100000DA4042884205DC206A002800DA4042B1
:101A2000884201DD032000E00220A863696BA06A00
:101A3000814219D06863A06A01F056F8414900F06C
:101A40006AFE1D2100F0A5FE01F0F0F83E4A3F4B72
:101A500000F052FF082201F030F800223C4B00F069
:101A6000BDFF01F0C4F828630496296BA06905F056
:101A7000BCFA0590296BE06905F0B7FA0690296B6E
:101A8000206A05F0B2FA07906A4604A92C4805F0CE
:101A900001FB00982A4A8001009001986946800164
:101AA00001900298800102900398800103901046F3
:101AB00005F0AAFA22490846FFF71FFF08B070BDDB
:101AC000AE63FBE72DE9F0430446D0F820018FB068
:101AD00041067CD51A4DD4F810111E4B2A68891A7C
:101AE000D4F82C215A438A4201DA032100E0022172
:101AF000A963810504F58870804601D51049D4E0BA
:101B0000002104A805F028F80D490C223C3104A856
:101B100000F06AFD08BBD4F82801A96D88421BE0DB
:101B200017B75139A69BC43B0AD7233C8FC2753DDA
:101B3000CDCC4C3ECDCCCC3E0014CD47000080CE69
:101B4000440C002000247449112D4454FB21094009
:101B50000080664071981C007ED0208807AB80B260
:101B600004AA616A04F057FE099800F0BDFF01461F
:101B700000F09FFD0746089800F0B6FF014600F010
:101B800098FD0646079800F0AFFF014600F091FD72
:101B9000314600F036FD394600F033FD06F0DAFF3D
:101BA0000646E84900F085FDE74900F0B4FD6FF016
:101BB0000F0100F0EEFD0746D4F8280100F094FF75
:101BC000394600F076FDE14900F0A5FD00E06EE049
:101BD0004FF0FF3100F0DDFD074603F029FE81469E
:101BE000384606F0F3FE07464FF08040864204DA9E
:101BF000A8640020E864286533E01E21484600F010
:101C0000C8FD00F0A6FFA864079800F06DFF8146AC
:101C1000CF49384600F04DFD0746494600F049FDE2
:101C2000314600F078FD00F094FFE864089800F079
:101C30005BFF0146384600F03CFD314600F06BFD8D
:101C400000F087FF2865099800F04EFF01463846EE
:101C500000F02FFD314600E00EE000F05CFD00F0EA
:101C600078FF04AB686593E8070005F13C0383E85F
:101C70000700D4F82801A8656A46B649404605F031
:101C800009FAB4480AAA14306946044605F002FA73
:101C90002146404605F0E3F9AE486A460AA94838AD
:101CA00005F0F8F9AB4968464839FFF726FE0FB052
:101CB0008DE51FB50446A7486946483805F0CFF9B9
:101CC000A44A6946283A204605F0E4F9A1491DCC0A
:101CD000383981E81D001FBD2DE9F0479D4E0446AF
:101CE000483E90F8740006F15C0A06F120080125D0
:101CF00000F05001103692B004F5887904F15C07C9
:101D0000402906D094F8200100F0500040280DD062
:101D10001EE031463846FFF761FDB4F82001C005EA
:101D20000CD55146484605F09AF907E05146484619
:101D300005F095F9B4F87400C00509D585486946E1
:101D4000483805F08CF942466946304605F0A2F95C
:101D5000B4F82001C005204602D5FFF7B3FE01E02C
:101D6000FFF72EFE7B4932464839404605F092F98E
:101D700094F87400400671D5208EB4F82011084301
:101D8000C00578D50FAA3946304605F01DFBD4E9C9
:101D9000172080FB0001C2FB0201626E6D4FC2FB87
:101DA0000201483F4FF08042801A71F1020014DBBB
:101DB00004A804F029FFDDE9042080FB0001C2FB38
:101DC0000201069AC2FB02014FF08042801A71F1B3
:101DD000020002DB0420B8630BE0B86B042808D0D3
:101DE00041F28832022806D0032804D001283AD0D4
:101DF00009E0002507E0E16E91FBF2F5012D00DA24
:101E00000125032800D0AD00534800244543109815
:101E100007948002294605F0E8F808900F982946B3
:101E20004042800205F0E1F8CDE909040BAA3146F1
:101E300007A805F02FF932460BA9104605F0E4F883
:101E400031460846FFF759FD42486946483805F0D3
:101E500006F942466946304605F01CF912B00020EA
:101E6000BDE8F08707E0E06E90FBF2F0012800DAB1
:101E700001204500C7E7334619463846E26EFFF7B2
:101E8000D7FBE1E770B50446008EC105D4F8200108
:101E900007D4B4F87410C90503D4C10501D40020D7
:101EA00070BDC0F30120032808D02046FFF714FFBF
:101EB0002848A16B383805F02DFDF0E704F588714E
:101EC00024482EC9383880E82E00F1E7234805F071
:101ED00031BD204810B56C21483800F07AFB1D4810
:101EE0004FF080414838016101600162C163C16502
:101EF000002010BD1D4810B5082219A1006800F08F
:101F000073FB08B1322010BD1322BDE81040C82178
:101F1000124805F0E5BA10B5FFF7DBFF002805D140
:101F2000AFF22F00BDE8104005F062BB10BD10B548
:101F30000A4805F0FFFCAFF24300BDE8104005F091
:101F40001FBD0000DB0F49400000344300247449EA
:101F5000000080CE8C0C0020A69BC400851E0008CB
:101F6000654D504C20352E310000000050000020FF
:101F7000002803DDFE490122C1E92002002070474C
:101F800010B5B821FA4800F024FBF948F949C160BE
:101F9000F9498160F9490160F94941604FF0804198
:101FA00041664FF4FA61C167F649C0F89C10002001
:101FB00010BD2DE9F041EE4C0E4607460025216884
:101FC00000F086FE11D33846616800F077FE0CD32E
:101FD0002069012813D13046E16800F079FE04D36E
:101FE0003046A16800F06AFE09D2606F20B9E0486F
:101FF000A16D183005F09AFB0120C4E91D05D4E954
:102000001E01884204DB606F012800D1E565656729
:10201000BDE8F08170B50C46054604F029FDD44AB0
:10202000002110B9D848854202DD1161516102E0FA
:102030001069002808D1506920445061B0F5FA7F3A
:1020400002DD0120C2E9040170BDF0B58DB00D467E
:1020500014460646694605F0D6F909AA31462846CF
:1020600005F018F82946304604F0F9FF0021EC4647
:102070000DF1240E00231A46184601EB41073D18C6
:102080000EEB80065CF825507668401CC5FB0632D6
:102090000328F4DB980F40EA820044F82100491C31
:1020A0000329E7DB0DB0F0BDB1490020C1F88C0079
:1020B000704770B50446806800F016FD014600F0D8
:1020C000F8FA0546606800F00FFD014600F0F1FAED
:1020D0000646206800F008FD014600F0EAFA3146A5
:1020E00000F08FFA294600F08CFA06F033FDBDE8C7
:1020F00070406FF00F0100F04CBB70B50E4600252C
:102100009B4C012130B101280CD0C4F8981044F840
:102110008C5F29E0C4F8A060C4E92965E4E92415CE
:10212000A56070BD3046D4F8A01000F0BCFA20F0D5
:102130000040D4F89C1000F0C1FD13D254F8945F15
:1021400031466D1C2560206900F05BFA2061943CEB
:10215000312DE6DD022144F8901F8C4900F0DBFAB6
:10216000A06170BD44F8905F656070BD2DE9FF4FC0
:102170008BB000267E4C0546039604960596D4F84F
:1021800088009346374600287ED004F003FD10B146
:1021900003A804F0D3FCD4F88000A146002819DD80
:1021A00001204C46C9F8840004F0F4FC48B103A8AF
:1021B00004F0F8FC8009B0F5C87F02D2D4F88000A2
:1021C00004E0D4F88000401BC4F88000002801DC43
:1021D000C4F8847004F064FE002855D000240E98E2
:1021E00050F8240000F080FC82465BF8240000F0E8
:1021F0007BFC6FF00F08414600F0CBFA514600F02F
:1022000058FA414600F0C5FA314600F0FAF9641C6C
:102210000646032CE3DB5846FFF74BFF01460690CA
:10222000304600F078FA4FF07E58DFF864A1404560
:1022300001DD404602E0504500D9504603F03CF92C
:102240008346D9F88C004E4670B13168069800F08C
:1022500035FD09D27168069800F03AFD04D259465E
:10226000D6F89000FFF749FF684604F0EBFC4049C0
:102270000C22AC31684600F0B7F918B9D6F89800CE
:1022800001286CD13A4800E0C6E09DE80E00AC3071
:1022900080E80E00009818B9019808B9029858B360
:1022A0006846FFF706FF044610F0FF4F57D0DFF8EF
:1022B000E4902046494600F0F6F9014600F0F9F9AD
:1022C00006F048FC70604946204600F09AF9014645
:1022D00000F0EFF906F03EFC3060029800F004FCDC
:1022E0006FF00F0100F055FA214600F014FA044691
:1022F00040451FDD444620E02048306020487060A3
:10230000D6F89800012804D01B48B0601948F06046
:1023100025E0D6F89C80D6F8A8404146204600F03B
:10232000C2F9B0604146204600F06BF9C6F89870DB
:10233000F06014E0544500D95446204603F0BCF840
:10234000D6F89C1000F0AFF9B060204603F0B4F866
:10235000D6F89C1000F055F9C6F88C70F060DFF8E4
:102360001080F16D08F1580801BB0120002413E032
:10237000B00C00200000B4420000B4C20000704263
:102380000000F0417B142E3E00401C4600004842F5
:10239000000080BF00002041F06506EB04104146BC
:1023A000183004F08DFB641C042CF6DB434907AAAB
:1023B0000C460C98FFF749FE21460C9804F04FFE9E
:1023C00003A804F0EFFB00F098FB6FF0050100F0AC
:1023D000E0F92946FFF71EFE59460698FFF7E9FD8A
:1023E000D6E91E01884201DA2844B067706F90B9BF
:1023F000306E28443066B0F57A7F0CDD2F493022EC
:102400003C39A1F11000376600F0BCF82B4841467A
:102410001C3804F055FB706F0FB0BDE8F08F70B53D
:1024200088B0044604A804F05FFBD4E93001451AE3
:10243000684604F013FB064604AB04F1A0026946AB
:102440002846FFF793FE05F081F908B0304670BDCD
:1024500004224FF49671AFF2390005F041B8AFF2A3
:10246000410005F067BA10B5FFF78AFD00280DD1CD
:10247000124800216438C0F88C100121C0F888107F
:10248000AFF23300BDE8104005F0B2B810BD10B592
:10249000AFF2750005F04EFAAFF27D00BDE81040D6
:1024A00005F048BA054901206439C1F88C000020C4
:1024B000704702486438406F70470000140D0020D8
:1024C0002DE9F0410024061B254671F1000605DACE
:1024D00001240027D0EB070067EB0101161E73F102
:1024E000000605DA0027D2EB0702012567EB03039C
:1024F00000F00EFC86460E4617469C46AC4204D0C1
:102500000025D0EB050E65EB010624B10020D2EBCF
:10251000000760EB030C704631463A466346BDE85F
:10252000F081202A04DB203A00FA02F100207047F3
:102530009140C2F1200320FA03F319439040704701
:10254000202A04DB203A21FA02F00021704721FA08
:1025500002F3D040C2F1200291400843194670476F
:10256000202A06DBCB17203A41FA02F043EAE07357
:1025700006E041FA02F3D040C2F120029140084344
:102580001946704710B5431A934209D28318881828
:1025900003E010F8011D03F8011D521EF9D210BD11
:1025A00040EA01039B0703D009E008C9121F08C0D5
:1025B000042AFAD203E011F8013B00F8013B521E55
:1025C000F9D210BDD2B201E000F8012B491EFBD2B6
:1025D00070470022F6E710B513460A46044619462E
:1025E000FFF7F0FF204610BD30B50446002003463B
:1025F00000E05B1C934203D2E05CCD5C401BF8D052
:1026000030BDF0B480EA0102D40F4200B2EB410FBA
:1026100002D20246084611464A0042D0C30DDDB23E
:10262000C1F3C752AD1A202D35DAC1F3160141F4BA
:10263000000204B15242C5F1200602FA06F12A4115
:102640001044B3EBD05F23D0C4B1012DA0EBC35035
:1026500009DCF0BC4FF0004202EAC352DBB200F5E5
:10266000000000F08FBB400000F1807000EBC35011
:10267000A0F1807040EAD170490009E0490841EAC0
:10268000C071A0EBC35000F50000400800EBC35040
:10269000F0BC00F06EBB6142012202EB4101001B65
:1026A000F6E7F0BC704781F00041AAE780F00040F7
:1026B000A7E780EA010210B502F00043400022D0F3
:1026C0004A001FD0010E01EB1261C0F35600C2F3A5
:1026D000560240F4000042F40002A0FB0220000475
:1026E0007F39140400D0401C50EA124001D440004D
:1026F000491EC2B20C0604EBD010401C4008802AD0
:1027000002D003E0002010BD20F00100002900DA13
:102710000020184310BD30B480EA010202F00045E9
:1027200030F0004221F0004013D090B1C30DD40D21
:10273000C2F31601C0F31600E41A41F4000140F49C
:1027400000027D34914201D3641C00E04900002C5A
:1027500002DA30BC002070474FF4000000239142A1
:1027600001D3891A034340084FEA4101F7D151B11F
:10277000914202D14FF0004105E002D24FF0010139
:1027800001E06FF0010103EBC450284430BC00F0BD
:10279000F0BA420005D0C0F3C7525242914201DC68
:1027A0000020704700EBC15070472DE9FE4F804676
:1027B00081EA0300C00F0C46009021F0004123F095
:1027C0000045B8EB0200A94105D24046214690469B
:1027D0001C460B46024623F00040104347D0270D0D
:1027E000C7F30A00C3F30A510290401A019040282F
:1027F0006BDAC3F3130040F4801B0098924620B1BB
:102800000023D2EB030A63EB0B0B01985946C0F18E
:1028100040025046FFF785FE06460D465046594693
:10282000019AFFF79DFE10EB08006141002487EA42
:10283000115284EAE7731A4340D0009A62B3019AB6
:10284000012A4FEA075215DC001B61EB02014FF031
:10285000004202EA0752CDE90042001C41F5801116
:1028600032462B4600F018FB03B0BDE8F08F40461F
:102870002146F9E7001B61EB0201001C41F58013C2
:1028800000185B412018A2F5001747EB030140EA4E
:10289000D570B6196D4111E06D084FEA360645EA6C
:1028A000C0754FEA0752001B61EB0201001C41F5A5
:1028B000801149084FEA30000019514132462B4639
:1028C00003B0BDE8F04F00F0D8BA009801224000F4
:1028D0000023D0EB020263EBE073009821464FEA3D
:1028E000E074B8EB000061EB0401E9E783F000431A
:1028F0005BE781F0004158E72DE9FE4F81EA0304D0
:1029000004F0004421F0004100944FF0000B23F04C
:10291000004350EA01045ED052EA03045BD0C3F3E3
:102920000A54C1F30A552C44A4F2F3340194A0FBD9
:102930000254C1F3130141F48011C3F3130343F4B0
:10294000801301FB024400FB034E840A970A44EA09
:10295000815447EA8357A4FB076802958D0A05FB5B
:1029600007854FEA932C04FB0C542705029D4FEA80
:10297000065847EA1637B5EB08056EEB070C870ECD
:10298000920E47EA811742EA8312A7FB0201B6EBD7
:102990000B0164EB00042B0D43EA0C335E1844EB8F
:1029A0001C50DA465146E7FB0201C5F313044FEA17
:1029B0000B3343EA14534FEA0432019C43EA060303
:1029C000A4F10C040294009CCDE900B400F064FA78
:1029D00003B0BDE8F08F00200146F9E72DE9F04D86
:1029E00081EA030404F0004B21F0004514464FF047
:1029F000000A23F0004150EA050220D054EA010207
:102A00001DD0C5F30A570246C5F31303C1F31300E3
:102A1000C1F30A5640F4801543F48013A7EB06086F
:102A2000101BD64608F2FD3873EB050002D308F1FF
:102A3000010801E092185B41B8F1000F03DA0020B1
:102A40000146BDE8F08D00204FF480110646844613
:102A50000EE0171B73EB050705D3121B63EB050391
:102A600006434CEA010C49084FEA300092185B41DA
:102A700050EA0107EDD152EA030012D082EA0400C5
:102A800083EA0501084305D0101BAB4106D20122A1
:102A9000002306E000224FF0004302E06FF0010245
:102AA00053101AEB06004CEB085110EB0A0041EBF7
:102AB0000B01BDE8F04D00F0E0B970B521F0004326
:102AC00003430CD0C1F30A550024D5EB040564EB95
:102AD0000403D617AD1AB34102DB0020014670BDD6
:102AE000201841EB025170BDC10F80EAE07008442C
:102AF000CA079623002100F045B99623002211460B
:102B000000F040B9F0B4CA17CB0F50405140C6187E
:102B100041F100054FEAC372314628004FF0960399
:102B200003D0B623F0BC00F02DB930460021F9E700
:102B30000EB5C10F80EAE0700844CA07002140F2D8
:102B400033438DE80E000A460B4600F0A5F903B0AA
:102B500000BD00F0004220F00040C10DC0F316009F
:102B600040F400007F2901DA00207047962903DC39
:102B7000C1F19601C84001E096398840002AF4D09E
:102B80004042704720F00040C10DC0F3160040F4F1
:102B900000007F2901DA00207047962903DCC1F18B
:102BA0009601C840704796398840704710B500F0CC
:102BB000004420F00040C20DC0F3160040F40000B5
:102BC0007F2A02DA0020014610BD0021962A03DC8C
:102BD000C2F19602D04002E0963AFFF7A2FC002C28
:102BE000F2D00023D0EB030063EB010110BD70B500
:102BF000C1F30A5201F000450024C1F3130140F271
:102C0000FF3341F480119A4201DA002070BD40F296
:102C100033439A42A2F2334203DC5242FFF790FC64
:102C200000E090402C43F1D0404270BD00F00042E3
:102C300030F000400AD0C10D01F56071C0F31600FC
:102C400042EA0151C2084007114370470020014683
:102C50007047000030B5041E71F1000404DB4FF032
:102C60000044404264EB0101141E73F1000405DBD3
:102C70001C464FF00043524263EB0403994208BFE5
:102C8000904230BD01F0004330B421F0004150EAE1
:102C9000010206D00A0DA2F56072C1F31301002AE9
:102CA00002DC30BC00207047440F44EAC104C1007C
:102CB000E01830BC00EBC25000F05BB8002801DB2C
:102CC000C0F10040002901DBC1F1004181427047A1
:102CD000002801DBC0F10040002901DBC1F1004107
:102CE0008842704730B50B4601460020202201245F
:102CF00009E021FA02F59D4205D303FA02F5491BCA
:102D000004FA02F52844151EA2F10102F1DC30BDDF
:102D10002DE9F05F0546002092469B468846064610
:102D2000814640241BE02846414647462246FFF79D
:102D300007FC53465A46C01A914110D31146184613
:102D40002246FFF7EEFB2D1A67EB01084F4622469D
:102D500001200021FFF7E5FB17EB00094E41201E83
:102D6000A4F10104DFDC484631462A464346BDE86B
:102D7000F09F0029A8BF7047401C490008BF20F001
:102D80000100704710B4B0FA80FC00FA0CF050EA71
:102D9000010404BF10BC704749B1CCF1200421FAF2
:102DA00004F411FA0CF118BF012121430843A3EBED
:102DB0000C01CB1D4FEA00614FEA102042BF0020FA
:102DC00010BC704700EBC35010440029A4BF10BCD6
:102DD0007047401C490008BF20F0010010BC70473C
:102DE000F0B4002802DCF0BC00207047C0F3C751EB
:102DF000C0F3160040F40000CA0701D14000491E8C
:102E00003F2202EB6105002211464FF4000626FA2C
:102E100001F31344D418844201D8001B1A46400021
:102E2000491C1729F3DD5100814202D24FF0FF31D6
:102E300000E0002102EBC550F0BCFFF79ABF10B5CF
:102E400041000CD0C0F3C751962908DC7E2909DC6B
:102E500006DB410204D000F0004040F07E5010BD7F
:102E6000002010BDC1F19604C4F1200100FA01F167
:102E7000E040FFF77EFFA04010BD10B5141E73F1B7
:102E8000000408DA401C41F1000192185B411A432A
:102E900001D120F0010010BD2DE9F04D92469B4676
:102EA00011B1B1FA81F202E0B0FA80F2203290461C
:102EB000FFF737FB04460F4640EA0A0041EA0B01E0
:102EC00053465A46084313D0114653EA010019D01D
:102ED000C8F140025046FFF733FB05460E46504608
:102EE00059464246FFF71DFB084305D0012004E088
:102EF00020463946BDE8F08D0020054346EAE076DD
:102F00002C4337430A986305E40AA0EB080000222B
:102F1000FD0A44EA47540A3002D500200146E9E799
:102F2000010510196941DDE9084500196941BDE84D
:102F3000F04DA2E7C1F30A52C1F3130140F2FF338F
:102F400041F480119A4202DA00200146704740F2B3
:102F500033439A42A2F2334202DC5242FFF7F0BA04
:102F6000FFF7DFBA064C074D06E0E06840F00103CA
:102F700094E8070098471034AC42F6D3FDF7BAF84E
:102F800084980008A4980008FEE77047012000F02C
:102F90001BB872B6FEE7000070B5044600F000F9F9
:102FA0000546601C02D004480078044400F0F8F89C
:102FB000401BA042FAD370BD10000020012801D1AF
:102FC00003F0BCBA70470000044910B50A68024219
:102FD00002D00860FFF7F2FF10BD000014040140AA
:102FE0002DE9F84FDFF89C91002409F1040A0AF159
:102FF000040B23460F270BF1040EBBE00125A5406F
:103000002A40AA4276D1DFF880C14E68A6EB0C08B0
:1030100066452BD00DDC032E34D005DC36B3012EF3
:1030200019D0022E2FD11BE0112E16D0122E2AD12C
:1030300019E0B8F5881F19D006DCB8F5803F15D027
:10304000B8F5801F1FD111E0B8F5001F0ED0B8F5FC
:10305000041F18D10AE0CB6815E0CB681B1D12E0F5
:10306000CB6808330FE0CB680C330CE08B682BB1D6
:10307000012B4FF0080303D0456104E0042302E074
:10308000056100E00023FF2A01D8064601E000F1B7
:1030900004064FEA840501D9A5F12005D6F8008081
:1030A00007FA05FC28EA0C0803FA05F548EA0508C2
:1030B000C6F800804D68ED005BD5344DAE6946F032
:1030C0000106AE61AD6924F0030605F00105009527
:1030D0002F4D06EB050CDCF80850A607360F07FA53
:1030E00006F825EA0805DFF8AC80404503D14FF02B
:1030F000000810E03DE0DFF8A080404502D14FF02D
:10310000010808E0DFF89480404502D14FF0020842
:1031100001E04FF0030808FA06F848EA0508CCF881
:1031200008804D68D9F80060ED034D4601D516437F
:1031300000E096432E604D68DAF80060AD03554616
:1031400001D5164300E096432E604D68DBF8006021
:10315000ED025D4601D5164300E096432E604D68B2
:10316000DEF80060AD02754601D5164300E09643D7
:103170002E60641C0A6832FA04F57FF43FAFBDE8A4
:10318000F88F000000040140000011100010024000
:103190000000014000080140000C01400010014007
:1031A00001488068704700001000002090F83D0042
:1031B0007047000070B5040025D094F83D0000254C
:1031C00020B984F83C50204600F02EFB242084F8DF
:1031D0003D002068016821F001010160206801685C
:1031E00041F4004101602068016821F40041016060
:1031F00000F076FC4D4A6168914201D84C4900E0EC
:103200004C49884201D2012070BD4B492368B0FB74
:10321000F1F15E6826F03F060E435E6063689342FC
:1032200006D94FF4967359434FF47A73B1FBF3F117
:103230002368491C1E6A26F03F0631431962616803
:10324000914210D84900401EB0FBF1F2521CC2F36B
:103250000B02042A01D2042022E0B0FBF1F0401C52
:10326000C0F30B001CE0A268F2B301EBC10303EB57
:103270000116431EB3FBF6F35B1C43F480431B05AE
:1032800049D092B301EBC10202EB0111401EB0FB29
:10329000F1F0401CC0F30B0040F4804040F40040CB
:1032A0002168CA694CF6FF739A431043C861D4E998
:1032B000071001432068026822F0C0021143016038
:1032C000D4E9030101432068826848F2FF339A433E
:1032D00011438160D4E9050108432168CA6822F0DE
:1032E000FF021043C86001E00EE016E020680168AC
:1032F00041F0010101602564202084F83D00256330
:1033000084F83E50002070BD01EB4106431EB3FB24
:10331000F6F35B1CB3E70120C2E701EB4101401E5D
:10332000B0FBF1F0401CC0F30B00B7E7A086010032
:1033300080841E0000093D0040420F002DE9FF4F30
:1033400081B089460446FFF72BFF054694F83D00FF
:103350004FF0010820287DD1192301225049204631
:10336000009500F08BFF002874D194F83C000128F0
:1033700070D0012084F83C0020680168C90703D19F
:10338000016841F0010101602068016821F40061D9
:103390000160242084F83D00002626644148E06254
:1033A0004FF0011B20272068016841F48071016003
:1033B0000095002259462046049B00F05FFF50B163
:1033C00020680068C00502D54FF400702064032017
:1033D00005B0BDE8F08F216809F0FE000861FFF735
:1033E000DFFE2168054648694969C0F34000C1F322
:1033F00080214FF0A00A0FE0FFF7D2FE411B049896
:10340000814200D808B984F83DA02168486949691B
:10341000C0F34000C1F3802194F83D20A02A02D0DF
:1034200008B90029E8D084F83D7020684169C94393
:10343000890716D4016841F4007101602068416970
:1034400080691923012216492046009500F016FFD5
:10345000B8B900E021E084F83D7084F83C600020B9
:10346000B6E7016841F40071016021686FF4806083
:103470004861192301220A492046009500F0FEFE0A
:1034800008B10120A4E7039808F1010880458AD318
:1034900084F83D7084F83C60F3E7022098E7000070
:1034A000020010000000FFFF2DE9FF4F83B0002550
:1034B000DDE910799A4693460446DDF84880009588
:1034C000FFF76EFE064694F83D0020287CD11923B4
:1034D000012285492046009600F0D0FE0028F5D153
:1034E00094F83C0001286FD0012084F83C0020684B
:1034F0000168C90703D1016841F00101016020683A
:10350000016821F400610160222084F83D00402020
:1035100084F83E0025646762A4F82A90608D2085B7
:103520007248E062CDE9008653465A462046049927
:1035300000F0ACFD00287DD1208DDFF8B49120276C
:1035400068B1012814D00228206801681ED041F417
:10355000806101602068416980690090B6E0206860
:10356000416981690091016841F400710160ADE039
:103570002068016821F48061016072B620684169A9
:1035800081690091016841F400710AE041F4006131
:10359000016072B62068416981690091016821F477
:1035A0008061016062B691E0032868D801280CD0E0
:1035B000022843464FF000024946204600960FD0AD
:1035C00000F05CFEB0BB10E08BE032464146204686
:1035D00000F0D3FE70BB20680069616A08706CE07F
:1035E00000F04CFE30BB72B634E02068016821F474
:1035F0008061016072B620680069616A0870606A63
:10360000401C6062208D401E2085608D401E6085BC
:10361000384846F2A8110068B0FBF1F0C0EBC000DA
:1036200000EB80000090401E009008D020684069A8
:10363000C04300E029E040070CD50098F3E744F8C8
:10364000305F6773A573206940F02000206162B687
:1036500025731AE02068016841F400710160206858
:103660000069616A0870606A401C6062218D491EB1
:103670002185618D491E618562B621681BE0324655
:103680004146204600F079FE18B1012007B0BDE8A0
:10369000F08F20680069616A0870606A401C60628F
:1036A000218D491E2185618D491E618521684A69E8
:1036B000D24352070AD409690170606A401C6062F3
:1036C000208D401E2085608D401E6085208D002845
:1036D0007FF46AAF84F83D7084F83E5084F83C5023
:1036E000D4E70220D2E70000020010000000FFFF34
:1036F000040001001C0000202DE9FF4F83B09A4612
:10370000DDE9119793460446DDF84080FFF748FD58
:10371000054694F83D0020287FD119230122404915
:103720002046009500F0AAFD002876D194F83C00D0
:10373000012872D0012084F83C0020680168C90784
:1037400003D1016841F0010101602068016821F4A2
:1037500000610160212084F83D00402084F83E0093
:1037600000262664C4F82480A4F82A90608D208561
:103770002C48E062CDE9007553465A46204604992C
:1037800000F002FD70B930E02A463946204600F0CC
:1037900027FE58B1206C042804D12068016841F448
:1037A00000710160012007B0BDE8F08F606A2168F8
:1037B00000780861606A401C6062218D491E89B2F0
:1037C0002185628D521E628522685369DB435B0747
:1037D0000BD469B100781061606A401C6062208D72
:1037E000401E2085608D401E6085208D0028CBD135
:1037F0002A463946204600F01BFD0028CAD154F85D
:103800003D0B016841F400710160202004F81E099D
:10381000E67766770020C6E7FFE70220C3E70000EF
:10382000020010000000FFFF10B586B000210091DB
:1038300001910291039100680F4988421AD10F4CFF
:10384000A06940F00800A061A069694600F0080086
:103850000490C0200090122001900320039008489B
:10386000FFF7BEFBE06940F40010E061E06900F49E
:103870000010049006B010BD00540040001002403B
:10388000000C014002488168027811448160704751
:1038900010000020074810B5016841F010010160D8
:1038A000032000F075F80F2000F006F800F024F86F
:1038B000002010BD0020024070B50D4D04464FF4AD
:1038C0007A712878B1FBF0F00A490968B1FBF0F091
:1038D00000F0ECFA48B9102C07D200222146501E05
:1038E00000F036F800206C6070BD012070BD000053
:1038F000100000201C0000200C4808B5816941F030
:1039000001018161816901F001010091C16941F00A
:103910008051C161C06900F0805000900448416846
:1039200021F0E06141F00071416008BD00100240EB
:1039300000000140002809DB00F01F020121914036
:103940004009800000F1E020C0F80011704700003D
:10395000F0B40E4B1B680C46C3F30223C3F10705FA
:10396000042D00D90425191D072901D2002300E0E8
:10397000DB1E012606FA05F1491E214099409E40B2
:10398000761E16403143F0BC00F0F7BF0CED00E0AE
:10399000064900F0070208684FF6FF03184040EAA6
:1039A0000220034A10430860704700000CED00E05D
:1039B0000000FA052DE9F0470F46050061D0434E9F
:1039C000306800F00700B84209D2306820F00700E4
:1039D00038433060306800F00700B84251D12868A1
:1039E0003B4C810712D5400703D5606840F4E06086
:1039F00060602878000703D5606840F4605060601C
:103A00006068A96820F0F000084360602878C0076B
:103A100028D06868012810D02168022810D08907B2
:103A200000292EDA616821F0030101436160FFF78C
:103A3000B7FB804641F288390DE021688903EFE742
:103A40008901EDE7FFF7ACFBA0EB0801494502D97E
:103A50000320BDE8F0876068696800F00C00B0EBF7
:103A6000810FEFD1306800F00700B8420BD9306801
:103A700020F0070038433060306800F00700B8429B
:103A800001D00120E5E72878400705D56068E9689E
:103A900020F4E060084360602878000706D560687D
:103AA000296920F4605040EAC100606000F038F8F5
:103AB0006168084AC1F30311515CC84006490860B7
:103AC00006480068FFF7F8FE0020C2E70020024029
:103AD00000100240808B00081C0000201400002011
:103AE0000448054900684968044AC1F30221515C51
:103AF000C84070471C00002000100240908B000856
:103B00000448054900684968044AC1F3C221515C70
:103B1000C84070471C00002000100240908B000835
:103B200012A185B00FC98DE80F0014A0144A0068D7
:103B300004905168134801F00C03042B10D0082B9B
:103B40000ED1C1F38343C9031DF803000AD55168A0
:103B500004AAC1F34041515C0A4A5043B0FBF1F062
:103B600005B0704708494843FAE70000020304051E
:103B7000060708090A0B0C0D0E0F101001020000B9
:103B80000010024000127A0000093D002DE9F84FB4
:103B9000040070D02078C04DC00749D06868C0F3D9
:103BA0008100012807D06868C0F38100022809D18C
:103BB0006868C00306D52868800339D56068002886
:103BC000E7D035E06068B0F5803F0BD010B1B0F5BC
:103BD000A02F11D0286820F480302860286820F4B5
:103BE000802002E0286840F480302860606890B14E
:103BF000FFF7D6FA06460AE0286840F480202860DD
:103C0000F0E700BFFFF7CCFA801B642873D8286860
:103C10008003F7D50CE0FFF7C3FA064605E000BFC6
:103C2000FFF7BEFA801B6428F0D828688003F7D419
:103C300020789A4E80074FF001094FF0000839D5DF
:103C4000686810F00C0F07D06868C0F38100022884
:103C500009D16868C00306D42868800714D5206994
:103C6000012808D110E02069B0B1C6F80090FFF734
:103C700097FA074605E00AE1FFF792FAC01B02280F
:103C8000C4D828688007F7D52868616920F0F80053
:103C900040EAC10028600DE0C6F80080FFF780FA16
:103CA000074604E0FFF77CFAC01B022823D82868E7
:103CB0008007F7D4207800072CD57948A169D9B1BD
:103CC000C0F80090FFF76CFA074604E0FFF768FAC7
:103CD000C01B02280FD8686A8007F7D571484FF4D7
:103CE000FA510068B0FBF1F0009000BF0098411E4F
:103CF0000091FAD20EE080E0C0F80080FFF750FAA1
:103D0000074604E0FFF74CFAC01B022875D8686A22
:103D10008007F7D42078400760D5E8690027C00005
:103D200008D4E86940F08050E861E869012700F0B4
:103D3000805000905C480168C90513D4016883462F
:103D400041F480710160FFF72BFA824606E000BF64
:103D5000FFF726FAA0EB0A0064284ED8DBF8000033
:103D6000C005F5D5E06801280AD008B1052813D0B0
:103D7000286A20F001002862286A20F0040002E08E
:103D8000286A40F001002862E06841F2883B98B15F
:103D9000FFF706FA82460BE0286A40F0040028622A
:103DA000EEE700BFFFF7FCF9A0EB0A0159455AD82E
:103DB000286A8007F6D50CE0FFF7F2F9824605E0A5
:103DC000FFF7EEF9A0EB0A0159454CD8286A8007A5
:103DD000F6D41FB1E86920F08050E861E06988B34B
:103DE0006968C1F38101022944D00228C6F86080C5
:103DF00004D0FFF7D5F9044638E034E0FFF7D0F9F6
:103E0000074604E0FFF7CCF9C01B02282BD828682E
:103E10008001F7D4206AB0F5803F05D16868A168B9
:103E200020F4003008436860D4E908010843696859
:103E300021F4741108436860C6F86090FFF7B0F988
:103E4000044606E025E000BFFFF7AAF9001B0228A0
:103E500009D828688001F7D51BE000BFFFF7A0F95B
:103E6000001B022802D90320BDE8F88F28688001D2
:103E7000F4D40EE00128F7D06868226A00F480319B
:103E8000914204D1616A00F47010884201D001208F
:103E9000EAE70020E8E7000000100240000042428C
:103EA000800442421C0000200070004010B5401EFB
:103EB000B0F1807F01D3012010BD4FF0E02460619C
:103EC0000F21601700F059FD0020A061072020613C
:103ED000002010BD70B5040004D094F83D0000250A
:103EE00010B106E0012070BD84F83C50204600F07F
:103EF00023F8242084F83D002068C16821F4005193
:103F0000C160204600F02AFC2068016921F490413C
:103F100001612068416921F02A0141612068C1687E
:103F200041F40051C1602564202084F83D0084F8EC
:103F30003E00002070BD000030B585B00024009424
:103F400001940294039400681449884224D11448CF
:103F5000816941F480418161816901F4804104916A
:103F6000816941F00401816180690E4D00F0040017
:103F700004904FF400700090022001900320039001
:103F800069462846FFF72CF82815CDE90004694654
:103F900028460294FFF724F805B030BD00380140F0
:103FA00000100240000801402DE9F843044690F853
:103FB0003D001F4616460D4620284CD1C5B1BEB166
:103FC00094F83C00012846D0012084F83C004FF0D2
:103FD0000008C4F84080212084F83D00FFF7E0F895
:103FE000A6848146E684A068B0F5805F03D004E033
:103FF0000120BDE8F883206928B12E465FF0000556
:1040000084F83C800EE00026FAE78021204600F08C
:1040100001FCA0B9AEB116F8010B21684860E08C34
:10402000401EE084E08C4B464FF0000200970028D1
:10403000EBD14FF04001204600F0ECFB30B1032003
:10404000D7E735F8020BC0F30800E6E7202084F834
:104050003D000020CDE70220CBE7FEE701684A697A
:10406000D24352050FD46FF480624A61002140F8B8
:10407000301F202242738173026942F00402026100
:104080000173012070470020704700002DE9F84FB0
:104090000446006889460B9D01689846174641F41E
:1040A000806101602068016841F4807101600095C1
:1040B0004FF0011B0022594620460A9B00F0DEF813
:1040C0004FF4007A40B120680068C00501D5C4F8FB
:1040D00040A00320BDE8F88F216809F0FE000861C8
:1040E0002B46284920460A9A00F0FCF8F0BB2068CD
:1040F0004169806900902A4620460A9900F070F9CB
:1041000040B1206C04283AD12068016841F4007164
:10411000016034E0FEB2B8F1010F09D02168380A1D
:1041200008612A4620460A9900F05AF90028E8D189
:10413000206806612A4620460A9900F051F90028B5
:10414000DFD12068016841F4807101600095002290
:10415000594620460A9B00F091F80028B3D1216807
:1041600009F0FF0040F00100086100E007E02B4685
:10417000044920460A9A00F0B5F80028AAD0012088
:10418000A8E70000020001002DE9F843044600689A
:104190000D46DDE9089701689846164641F480719E
:1041A00001604B4600224FF001112046009700F0BD
:1041B00065F848B120680068C00502D54FF400706A
:1041C00020640320BDE8F883216805F0FE00086143
:1041D0003B464A461549204600F084F888B92068D5
:1041E0004169806900903A464946204600F0F8F857
:1041F00048B1206C042804D12068016841F40071A2
:1042000001600120DEE7F5B2B8F1010F09D02168A5
:10421000300A08613A464946204600F0E1F8002895
:10422000E7D1206805610020CCE700000200010012
:1042300070B516460D4604460DE02046FFF70EFF0A
:1042400008B1012070BD681C05D0FEF7A9FF801BD6
:10425000A84207D835B120684069C0434007ECD474
:10426000002070BD002044F8300F20216173A0733E
:10427000216941F0200121612073E2E72DE9F04737
:104280001E4690460D460446C1F30747DDF82090D0
:1042900008E0701C06D0FEF783FFA0EB0900B042D7
:1042A0000FD876B12068012F18D0806925EA000068
:1042B0000004000C14D000214145EAD00020BDE8E4
:1042C000F087002044F8300F20216173A07321692A
:1042D00041F02001216120730120F0E74069E5E70A
:1042E0000121E9E72DE9F0479A4691460E4604463A
:1042F00000254FF02008C1F3074725E020684069FA
:10430000C043400514D42068016841F40071016085
:1043100021686FF480604861256384F83D8084F8EB
:104320003E50206C40F00400206484F83C501FE0B4
:10433000B9F1FF3F08D0FEF733FFA0EB0A01494572
:104340000CD8B9F1000F09D02068012F13D0806973
:1043500026EA00000004000C0BD0CFE744F8305FE1
:1043600084F80D80A573206940F02000206125733A
:104370000120BDE8F0874069EAE72DE9F04100251A
:1043800090460E460446202717E04069C043C00609
:104390000CD454F8301B6FF01000486144F81059E9
:1043A0006777A577206A2062257717E0FEF7F8FE89
:1043B000A0EB0800B04208D83EB120684169C9436B
:1043C0004906E2D40020BDE8F08144F8305F67730D
:1043D000A573206940F02000206125730120F2E7D9
:1043E00070B516460D4604460DE02046FFF736FE32
:1043F00008B1012070BD681C05D0FEF7D1FE801BFE
:10440000A84207D835B120684069C0430006ECD403
:10441000002070BD002044F8300F20216173A0738C
:10442000216941F0200121612073E2E72DE9F04389
:10443000002691B091460F4680463546FEF7B0FE05
:104440003D4C2169814203D200F5FA7001252061BB
:10445000207900286DD0A07800286AD00AA906A883
:10446000CDE9000102AB0BAA04A90FA801F0EEFBF5
:104470009DF8280008B900202071BDF8180010F040
:10448000700F0DD00FA8029902F040F901263DB13E
:1044900002A903A803F068FCDDE9021002F064F948
:1044A000BDF91800010712D5BDF910000790BDF93C
:1044B00012000890BDF914000990002107A8029A83
:1044C00002F0F0F8BDF81800C00502D409E0C005FC
:1044D00005D500210BA8029A02F030F901E0002E68
:1044E00027D002F021FA01AA694603A802F0FEFBD8
:1044F00000281ED00398FEF71BFB6FF00F04224626
:10450000FEF7DBFAFEF7BEFBC8F800000498FEF7E2
:104510000FFB2246FEF7D1FAFEF7B4FB3860059890
:10452000FEF706FB2246FEF7C8FAFEF7ABFBC9F81A
:10453000000011B0BDE8F0831004002000B585B084
:104540000020029003901548816941F020018161AB
:10455000816901F020010491816941F004018161C8
:10456000816901F004010491816941F008018161D0
:104570008069694600F00800049001200090084816
:1045800001900848FEF72CFD002202210620FFF7CB
:10459000DFF90620FFF7CEF905B000BD001002409C
:1045A00000001110000801400D4810B50B490160D2
:1045B0000C49416000214FF480428160C0E9031240
:1045C00041618161C1610162FEF7F4FD002803D001
:1045D000BDE81040FEF7DDBC10BD000000540040F7
:1045E00068000020801A06000C4810B50A490160D6
:1045F0004FF4E1314160002181600C22C160C0E9CB
:1046000004128161C161FFF765FC002803D0BDE899
:104610001040FEF7BEBC10BD00380140BC000020B9
:10462000FEE7FEE770477047FEB50646CDE900326B
:104630000A464FF47A740146029401230E48FEF7AD
:1046400033FF050004D00DA000F062F90120FEBD8B
:104650000948FEF7ABFD2028FAD123463222314625
:104660000548FEF76BFE0328F7D00348FEF79EFDD2
:104670002028FAD12846FEBD680000204932432098
:10468000526561642057726F6E6721210D0A000028
:10469000FEB50646CDE900320A464FF47A7401466B
:1046A000029401230E48FFF727F8050004D00DA05F
:1046B00000F02EF90120FEBD0948FEF777FD202805
:1046C000FAD12346322231460548FEF737FE032849
:1046D000F7D00348FEF76AFD2028FAD12846FEBD30
:1046E0006800002049324320577269746520577270
:1046F0006F6E6721210D0A00FFF7C4B830B58FB087
:1047000028216846FDF765FF14210AA8FDF761FF1F
:1047100001210804CDE9001000240294022504912F
:10472000CDE907504FF4E01009906846FFF72EFAE4
:1047300008B172B6FEE70F20CDE90A054FF480609C
:10474000CDE90C4002210AA80E94FFF733F90028A6
:1047500001D072B6FEE70FB030BD704770B50446A9
:1047600000680169E26821F4405111430161216947
:10477000A0680843616908432168CA6841F20C6374
:104780009A430243CA6020684169A26921F44071DA
:10479000114341611E492068884202D1FFF7B0F9F8
:1047A00001E0FFF79DF900EBC00101EB001260682A
:1047B00064218000B2FBF0F3B3FBF1F36FF0180655
:1047C0007343B2FBF0F5B2FBF0F605EB8305322341
:1047D00003EB0515B5FBF1F5B6FBF1F605F0F005B9
:1047E00005EB0615B2FBF0F6B2FBF0F0B0FBF1F012
:1047F0006FF01802504306EB800003EB0010B0FB93
:10480000F1F0216800F00F002844886070BD0000BE
:10481000003801402DE9F041984617460E460446FF
:10482000069D1DE0681C1BD02DB1FEF7B9FCA0EB66
:104830000800A84214D92068C16821F4D071C16071
:104840002068416921F001014161202084F83D0088
:1048500084F83E00002084F83C000320BDE8F0818D
:104860002068006836EA000004D00020B842D9D0A1
:104870000020F3E70120F9E7FEE70FB42DE9F0414E
:104880000446CAB0092C3DD2DFE804F00505050551
:104890000505053C050053AA06A8529900F048F802
:1048A000071E30DD18216846FDF793FE24208DF8A1
:1048B000000001208DF801008DF802400D208DF8D8
:1048C00015000A208DF8160000256C460DF1180819
:1048D00016E0781B122800DB1220C6B21221E01C61
:1048E000FDF777FE08EB05013246E01CFDF74AFEB6
:1048F0000026A05D01F02EFC761C172EF9DB123588
:10490000BD42E6DB00204AB0BDE8F0015DF814FBD3
:104910000FB4054B10B503A9044A029800F0F0F952
:1049200010BC5DF814FB00003D6100086000002031
:1049300037B514460846064B6A46214600F0E0F9B2
:1049400004466946002000F072FD20463EBD00008E
:104950002F5400084100080218BF04200A0E18BF97
:1049600040F001004FF07F4232EA010108BF40F001
:104970000200012808BF052070470907090E00281A
:1049800004DB00F1E02080F80014704700F00F0015
:1049900000F1E02080F8141D70470121FDF7F9BEF9
:1049A000FDF72FBE00210846FDF7B5BE6FF05E0192
:1049B0000807FDF7EEBE00002DE9F04D0D46144648
:1049C0004FF07F41B1EB440F9EBF4FF0FF312960A4
:1049D000BDE8F08D4FF0004040EA0421C4F3C75019
:1049E000783810F01F024A4B4FEA601CC2F12006D3
:1049F0007B44C4F3C750A0F178004FEA601003EB8A
:104A0000800053F82C3008BFD0E901C612D0D0F88E
:104A100004C093402CFA06F73B4387680CFA02FC6B
:104A200027FA06F8C06807FA02F2F0404CEA080CD0
:104A300042EA0006A3FB0132ACFB01C0A6FB016108
:104A400001EB0C068E4234BF4FF0010C4FF0000C0E
:104A5000C1186144BCF1000F02D0814202D903E0C9
:104A6000814201D2012000E00020104400F1200228
:104A70004FEA92188006CA0C40EA42304F03C5F84C
:104A80000080FEF731F882463846FEF736F86FF0C0
:104A90001201FDF77EFE07463046FEF72EF86FF056
:104AA0002501FDF776FE834639465046FDF7A9FD00
:104AB0005946FDF7A6FD00F500666FF30B0651465B
:104AC0003046FDF7F0FD3946FDF7EDFD5946FDF79F
:104AD000EDFD1049FDF7EDFD07460F493046FDF7A6
:104AE000E8FD3946FDF78DFD07460C493046FDF7D8
:104AF000E0FD3946FDF785FD14F0004F08BFBDE825
:104B0000F08DC8F1805180F000402960BDE8F08D43
:104B1000204E0000DB0FC92F22AAFD290000C92F5B
:104B20000EB50092CDE901300B4603A2002106200C
:104B3000FFF7A3FE0EBD000025737C25737C256462
:104B40002072657475726E696E672025640A0000B4
:104B500002E008C8121F08C1002AFAD17047704746
:104B6000002001E001C1121F002AFBD170470000A4
:104B70000149086070470000640000202DE9FF5FD4
:104B800082B00021DDE90430020DDDF840B00343BE
:104B900018D044F61050A2F2FF3242431514119877
:104BA00001281FD0A5EB0B00401C5FEA000A4FF064
:104BB00000064E4FDFF83891B046504615D5CAF181
:104BC000000413E0119801244AA3012801D16FEADF
:104BD0000B010298119AC0E90031C0E9024206B007
:104BE000BDE8F09FCBF10000DFE704460021404A1A
:104BF000491842EB0450CDE9001012E0E00707D05D
:104C000032463B4640464946FDF776FE8046894699
:104C100032463B4610461946FDF76EFE06460F46E5
:104C20006410002CEAD1DDE90401DDE90023BAF1CA
:104C3000000F06DAFDF760FE42464B46FDF75CFECC
:104C400005E0FDF7CBFE42464B46FDF7C7FE0446A6
:104C50000E460022284BFDF7FDFF03D84FF0FF3032
:104C6000014607E00022254B20463146FDF79DFD19
:104C7000FEF760F9102409E0002C0ADB0A22002369
:104C8000FEF746F8039B30321A55641E50EA0102C3
:104C9000F2D1641C039AC4F111031444119A012A3D
:104CA00003D0012208430DD10AE0084304D00020BC
:104CB0004FF0110B119072E7A3EB0B056D1E0DE089
:104CC0005B4504DD4FF0000205F1010504E003DA65
:104CD0004FF00002A5F10105002AECD002981199CD
:104CE000C0E90231C0E9004579E700000000144046
:104CF0000000F03F300000000000F0430000E03F03
:104D00002DE9FF4F95B09B468946064600250FE2E8
:104D1000252877D100242746F84A0121059400E090
:104D2000044316F8013F203B01FA03F01042F7D18B
:104D300030782A2811D06FF02F033078A0F130029C
:104D4000092A16D8059A44F0020402EB820203EB0A
:104D500042021044761C0590EFE759F8042B0592A7
:104D6000002A03DA504244F40054059044F002044F
:104D7000761C30782E2816D116F8010F44F0040462
:104D80002A280DD06FF02F023078A0F13003092BC4
:104D900009D807EB870302EB4303C718761CF3E738
:104DA00059F8047B761C30786C280FD006DC4C2830
:104DB00017D068280DD06A2814D104E0742810D0C8
:104DC0007A280FD10DE044F400140AE044F4801472
:104DD00001E044F440147278824202D104F5801458
:104DE000761C761C307866280BD013DC582877D0D8
:104DF00009DC002875D04528F6D04628F4D047288D
:104E00001AD19DE118E0632835D0642879D065284F
:104E100012D195E1702873D008DC6728F1D0692899
:104E20006FD06E280DD06F2806D1B5E073282CD036
:104E3000752875D0782874D05A46179990476D1CFC
:104E400075E1C4F30250022809D003280DD0D9F827
:104E5000001004280DD00D6009F1040967E1D9F8AC
:104E60000010EA17C1E90052F6E7D9F800100D80EA
:104E7000F2E70D70F0E719F8041B8DF80010002020
:104E80008DF80100EA46012003E059F804AB4FF029
:104E9000FF3061074FF0000102D40DE008F101017D
:104EA0008846B9420FDA8045F8DB1AF80810002965
:104EB000F4D108E008F1010188468142FADB1AF8D2
:104EC00008100029F6D105985B46A0EB080721469B
:104ED0003846179A00F094FA284400EB080507E0DA
:104EE0004DE029E10DE01AF8010B5A461799904759
:104EF000B8F10108F7D25B4621463846179A13E10C
:104F000042E00A220092C4F302524FF0000A022A41
:104F100008D059F804CB032A4FEAEC710AD00DE00F
:104F200029E02AE009F1070121F00702F2E802C1B5
:104F3000914609E00FFA8CFC4FEAEC71042A03D188
:104F40004FFA8CFC4FEAEC71002907DA0A4600217F
:104F5000DCF1000C61EB02012D2202E0220504D5F8
:104F60002B228DF80420012203E0E20701D0202249
:104F7000F7E7904659E00A2102E010220DE01021E7
:104F80004FF0000A00910BE010224FF0000A44F0AD
:104F900004040827009203E008224FF0000A009260
:104FA000C4F30252022A05D059F804CB0021032A87
:104FB00008D009E009F1070121F00702F2E802C177
:104FC000914605E01FFA8CFC042A01D10CF0FF0C7D
:104FD0004FF00008220728D5702806D0009B83F0E8
:104FE000100353EA0A0305D00EE040228DF8042096
:104FF000012208E05CEA010206D030228DF804208C
:105000008DF8050002229046009B83F0080353EAC6
:105010000A030AD15CEA010201D1620705D53022F8
:105020008DF804204FF001087F1E582804D034A0CA
:1050300003900EA802900DE036A0F9E753466046B3
:10504000009AFDF765FE84460398825C0298401E34
:10505000029002705CEA0100F0D1029806A9081AD9
:1050600000F1200A600702D524F4803400E0012713
:10507000574502DDA7EB0A0000E0002000EB0A0123
:10508000009005984144401A0590E00306D45B4621
:105090002146179A059800F0B3F90544002706E069
:1050A00001A85A46C05D179990476D1C7F1C474563
:1050B000F6DBE0030CD55B462146179A059800F015
:1050C0009FF9054404E030205A46179990476D1C1B
:1050D0000099481E00900029F5DC08E0029802992A
:1050E0005A460078491C0291179990476D1CBAF1F5
:1050F0000001AAF1010AF1DC65E1000009280100C4
:10510000303132333435363738396162636465663D
:1051100000000000303132333435363738394142FF
:10512000434445460000000000F058F90544761C51
:10513000307800287FF4ECAD19B02846BDE8F08F38
:10514000620700D4062709F1070222F0070CFCE8E9
:105150000223E14603F000485FEA080C02D00FF298
:10516000702C0DE05FEA045C02D50FF2682C07E0BA
:105170005FEAC47C02D00FF2602C01E0AFF2700C49
:105180004FF0FF3823F00043CDF850C065280CD015
:1051900006DC452809D046281DD047283DD13DE0F2
:1051A000662818D067287ED138E00021112F01DB56
:1051B000112000E0781CCDE9000106A90EA8FFF738
:1051C000DDFCDDE90F010E9A03910021009207F149
:1051D000010A04914DE04FF000400097CDE9011025
:1051E00006A90EA8FFF7CAFCDDE90F0203920E9B89
:1051F00011990022DDF80CA00093049211B9791CDA
:1052000000EB010AB7EB0A0004D4C0F1FF3007F14C
:10521000010A0490AAEB0700019044E0012F00DA94
:1052200001270021112F01DD112000E03846CDE9D2
:10523000000106A90EA8FFF7A1FCDDE90F010E9AF7
:105240000391002104910092BA4621070CD40399DE
:10525000514500DA8A46BAF1010F05DD009AAAF13C
:105260000101515C302908D0B84202DA10F1040F74
:1052700006DA0121CDE9011015E0AAF10101E9E703
:10528000002805DC049901440491AAEB000102E026
:10529000411C514500DD8A460499401A401C01908A
:1052A0004FF000400290200704D40198504501DBE4
:1052B000CDF8048000208DF84F0002980DF14F07C3
:1052C000B0F1004F25D02B200E9002984FF002082D
:1052D00000280CDA404202902D200E9007E00A21AF
:1052E0000298FDF7FFFC3031029007F8011DB8F17C
:1052F0000001A8F10108F2DC02980028EFD1791E24
:105300000E980870307800F0200040F0450007F853
:10531000020D12A8C01B00F107081498007800B114
:10532000012000EB0A01019801EBE071059841446E
:10533000401A401E0590E00306D45B462146179AAA
:10534000059800F05DF805441498007818B15A46A5
:10535000179990476D1CE00324D55B462146179AA8
:10536000059800F04DF805441CE00498002807DB80
:10537000DDE90301884203DD0098405C179901E0F4
:10538000179930205A469047049805F10105401CB2
:1053900004900198401E019004D12E205A4617997E
:1053A00090476D1CBAF10001AAF1010ADDDC05E0AD
:1053B00017F8010B5A46179990476D1CB8F1000178
:1053C000A8F10108F4DC5B462146179A0598ABE684
:1053D0002D0000002B000000200000002DE9F0410E
:1053E000044600251E461746880404D405E03946C5
:1053F0002020B0476D1C641EF9D52846BDE8F08119
:105400002DE9F041044600251E469046C80301D50B
:10541000302700E02027880404D505E041463846BF
:10542000B0476D1C641EF9D52846BDE8F0810A68B6
:10543000531C0B60107070472DE9FE4F07460E4657
:105440000025684600F092FE00246FF00F0AE8463F
:105450004FF0010957F8240056F82410401A00D5DF
:105460004042FDF741FB5146FDF793F958F82410EF
:1054700011F0FF4F0BD0FDF74EF94FF07E51FDF7C5
:1054800012F90A4920F00040884205DC07E008498B
:1054900008440849884202D309FA04F00543641C11
:1054A000032CD7DB2846BDE8FE8F0000295C0F3EA9
:1054B000666666C19A99D9002DE9F04104464FF01D
:1054C0001A4000EB4400B0F1C85F204655D84FF0B9
:1054D000FC41B1EB440F1CD224F000404FF07E5150
:1054E000FDF7E4F84FF0FF31FDF753F9054603F0FF
:1054F00031FB14F0004F1DBF2C4F2D4E80F00040AB
:10550000002708BF3E464FF04041FDF7D2F8044661
:1055100005E0284F284E0146FDF7CBF80546274900
:105520002846FDF7C6F82649FDF76BF82946FDF732
:10553000C0F82449FDF765F82946FDF7BAF8224975
:10554000FDF75FF82946FDF7B4F82049FDF759F853
:10555000804629462046FDF7ACF84146FDF7A9F8FC
:10556000054631462046FDF7A1F82946FDF79BF890
:105570003946BDE8F041FDF744B84FF0CC41B1EBFE
:10558000440F84BF1248BDE8F0814FF07F41B1EB7A
:10559000440F03D2BDE8F041FFF7FFB90120FFF748
:1055A000E7FABDE8F041FFF7FDB90000000049400F
:1055B00022AA7D3A0000C93F22AAFD3924FE1C3DE3
:1055C000C78AD83C1E67383D1B93993DAFAA2A3E37
:1055D000DB0FC93F2DE9F0474FF0684202EB400373
:1055E0000C460546B3F1654F3CBF02EB4102B2F1F8
:1055F000654F7CD2C0F3C753C1F3C7529A1A1B2A16
:1056000006DD10F0004F14BF76487748BDE8F087FC
:1056100012F11A0F17DA11F0004F06D010F0004FF8
:105620000CBF72487248BDE8F08721462846FDF756
:1056300072F80446FFF78EF9042808BFFFF7B6F9A1
:105640002046BDE8F0874200B2EB410F25D910F0AB
:10565000004F19BF674F684E684F694E224685F06C
:10566000004415460A4680F0004110460A1A5200CE
:10567000B2F1807F40D248406249DFF88CA110F03F
:10568000004F18D04FF03F483846FDF70CF807465A
:1056900051463046FDF707F817E011F0004F04BF00
:1056A00000263746E2D010F0004F19BF574F584E32
:1056B000584F594EDAE74FF07C583846FCF7A1FFB7
:1056C000074651463046FCF79CFF064641462846B1
:1056D000FCF7EFFF2146FCF794FF82462146404647
:1056E000FCF7E7FF2946FCF7E1FF514600E037E011
:1056F000FDF711F8044604E021462846FDF70BF8B3
:1057000004460146FCF7D5FF80464449FCF7D1FF2B
:105710004349FCF776FF4146FCF7CBFF4149FCF7D4
:1057200070FF4146FCF7C5FF3F49FCF76AFF414661
:10573000FCF7BFFF3D49FCF764FF054641462046A4
:10574000FCF7B7FF2946FCF7B4FF3146FCF759FFD9
:105750002146FCF756FF3946BDE8F047FCF751BF3C
:105760004FF07F42B2EB400F28BFB2EB410F03D2A4
:10577000BDE8F047FFF714B940EA01035B0008BF3A
:1057800044F0FF410AD0B2EB400F08BFB2EB410F2B
:1057900006D125F0804024F0804105460C4629E7DB
:1057A000B2EB400F12BF5FEA410245F0FF4004F048
:1057B00000413FF41FAF4A0092EA40033FF51AAFA1
:1057C000002AACBF4FF09F464FF03E563146FCF7E3
:1057D00070FF054631462046FCF76BFF044628461D
:1057E000214607E7DB0FC9BFDB0FC93FDB0F49408D
:1057F000DB0F49C00000C9BF22AAFDB90000C93FA4
:1058000022AAFD390060ED3EC30ACE37000049C030
:1058100022AA7DBA0000494022AA7D3A2DAD65BD7D
:105820008FB8D53D0FB511BE61C84C3EA8AAAABE1F
:105830002DE9F843044602464F486946B0EB420F53
:1058400009D94FF0E640B0EB420F94BF00204FF073
:10585000FF30009030E0494B22F00040834271D984
:1058600047492046FCF725FFFDF7E9FA8046FDF79A
:1058700070F900F00300009042494046FCF719FF20
:10588000054641494046FCF714FF06463F4940465D
:10589000FCF70FFF07463E494046FCF70AFF21464A
:1058A000FCF704FF3946FCF7FEFE3146FCF7FBFE31
:1058B0002946FCF7F8FE04462546009C002C45DBF3
:1058C000294614F0010F08461CD0FCF7F2FE0646EC
:1058D0003049FCF7EEFE3049FCF7E8FE3146FCF7B4
:1058E000E8FE2E49FCF78DFE3146FCF7E2FE294624
:1058F000FCF7DFFE2946FCF784FE14F0020F1CD0F3
:10590000BDE8F883FCF7D5FE05462549FCF7D1FE36
:105910002449FCF776FE2946FCF7CBFE2249FCF72A
:1059200070FE2946FCF7C5FE4FF07E51FCF769FE7C
:1059300014F0020F08BFBDE8F88380F00040BDE816
:10594000F883FFE71046FFF737F8B4E76800B0F1D7
:105950007F4F3CBF4FF07E50BDE8F88307D14FF03A
:105960000100FFF705F9BDE8F843FFF71BB828462B
:10597000BDE8F843FFF711B8B61F927E490E4946BD
:1059800083F9223F1A61342C0020A23300A0FD3994
:105990000000C93F336D4C39DA82083CA0AA2ABE08
:1059A000B93AB2BACA9F2A3DDDFFFFBE08B560B161
:1059B00020208DF8000028208DF8010030208DF87F
:1059C000020038208DF8030004E0A3220421684679
:1059D000FCF7F8FD6A46042140F69E2002F0BCFE6A
:1059E00002F07AFB08BD00003EB5044602208DF8A7
:1059F0000000CA208DF80100E3208DF80200092084
:105A00008DF803006A460421682002F0A5FEA32059
:105A10008DF80000610609D5C0218DF80110C8215C
:105A20008DF80210C2218DF8031005E08DF80100F9
:105A30008DF802008DF8030014F4C07F09D0C42152
:105A40008DF80410CC218DF80510C6218DF80610B4
:105A500005E08DF804008DF805008DF806008DF83E
:105A600008008DF807008DF809006A460A2140F603
:105A7000A72002F071FEA0074FF0D80503D0202028
:105A80008DF8000001E08DF800506A46012140F6D3
:105A9000B62002F061FEA00601D5012000E0002042
:105AA00000F08EF814F4C07F1ED0E0050AD5B220B5
:105AB0008DF800008B208DF80100B6208DF80200D3
:105AC0009B2009E0B0208DF8000080208DF80100B7
:105AD000B4208DF8020090208DF803006A4604215E
