:020000040800F2
:10000000C8040020010100082F140008C5130008CF
:100010002D140008BD0A000851150008000000005A
:100020000000000000000000000000003314000881
:10003000BF0A000800000000311400083514000851
:100040001B0100081B0100081B0100081B01000820
:100050001B0100081B0100081B0100081B01000810
:100060001B0100081B0100081B0100081B01000800
:100070001B0100081B0100081B0100081B010008F0
:100080001B0100081B0100081B0100081B010008E0
:100090001B0100081B0100081B0100081B010008D0
:1000A0001B0100081B0100081B0100081B010008C0
:1000B0001B0100081B0100081B0100081B010008B0
:1000C0001B0100081B0100081B0100081B010008A0
:1000D0001B0100081B0100081B0100081B01000890
:1000E0001B0100081B0100081B010008DFF80CD0F1
:1000F00000F060FC00480047813C0008C804002074
:100100000648804706480047FEE7FEE7FEE7FEE7B1
:10011000FEE7FEE7FEE7FEE7FEE7FEE797140008CE
:10012000ED0000082DE9F0410024061B254671F181
:10013000000605DA01240027D0EB070067EB010178
:10014000161E73F1000605DA0027D2EB070201251F
:1001500067EB030300F00CFA86460E4617469C46F2
:10016000AC4204D00025D0EB050E65EB010624B1AE
:100170000020D2EB000760EB030C704631463A4694
:100180006346BDE8F081202A04DB203A21FA02F020
:100190000021704721FA02F3D040C2F120029140C1
:1001A000084319467047D2B201E000F8012B491EFE
:1001B000FBD270470022F6E710B513460A46044604
:1001C0001946FFF7F0FF204610BD30B50446002069
:1001D000034600E05B1C934203D2E05CCD5C401B15
:1001E000F8D030BDF0B480EA0102D40F4200B2EB87
:1001F000410F02D20246084611464A0042D0C30DC2
:10020000DDB2C1F3C752AD1A202D35DAC1F31601A4
:1002100041F4000204B15242C5F1200602FA06F18F
:100220002A411044B3EBD05F23D0C4B1012DA0EB21
:10023000C35009DCF0BC4FF0004202EAC352DBB20B
:1002400000F5000000F0CEB9400000F1807000EB36
:10025000C350A0F1807040EAD170490009E049081C
:1002600041EAC071A0EBC35000F50000400800EB6C
:10027000C350F0BC00F0ADB96142012202EB410174
:10028000001BF6E7F0BC704781F00041AAE780F060
:100290000040A7E780EA010210B502F000434000E9
:1002A00022D04A001FD0010E01EB1261C0F35600AC
:1002B000C2F3560240F4000042F40002A0FB022008
:1002C00000047F39140400D0401C50EA124001D4CD
:1002D0004000491EC2B20C0604EBD010401C40087E
:1002E000802A02D003E0002010BD20F00100002988
:1002F00000DA0020184310BD30B480EA010202F099
:10030000004530F0004221F0004013D090B1C30D01
:10031000D40DC2F31601C0F31600E41A41F4000133
:1003200040F400027D34914201D3641C00E0490096
:10033000002C02DA30BC002070474FF4000000238C
:10034000914201D3891A034340084FEA4101F7D192
:1003500051B1914202D14FF0004105E002D24FF07D
:10036000010101E06FF0010103EBC450284430BCEF
:1003700000F02FB9420005D0C0F3C752524291425B
:1003800001DC0020704700EBC15070472DE9FE4FA3
:1003900081EA030404F0004421F0004100944FF08E
:1003A000000B23F0004350EA01045ED052EA03043C
:1003B0005BD0C3F30A54C1F30A552C44A4F2F334BE
:1003C0000194A0FB0254C1F3130141F48011C3F363
:1003D000130343F4801301FB024400FB034E840A21
:1003E000970A44EA815447EA8357A4FB07680295B9
:1003F0008D0A05FB07854FEA932C04FB0C54270557
:10040000029D4FEA065847EA1637B5EB08056EEB32
:10041000070C870E920E47EA811742EA8312A7FB68
:100420000201B6EB0B0164EB00042B0D43EA0C3325
:100430005E1844EB1C50DA465146E7FB0201C5F357
:1004400013044FEA0B3343EA14534FEA0432019C7E
:1004500043EA0603A4F10C040294009CCDE900B425
:1004600000F0FDF803B0BDE8F08F00200146F9E789
:10047000C10F80EAE0700844CA079623002100F00B
:10048000B1B896230022114600F0ACB800F000424B
:1004900020F00040C10DC0F3160040F400007F2999
:1004A00001DA00207047962903DCC1F19601C840AB
:1004B00001E096398840002AF4D04042704720F08D
:1004C0000040C10DC0F3160040F400007F2901DA9E
:1004D00000207047962903DCC1F19601C84070479F
:1004E00096398840704700F0004230F000400AD052
:1004F000C10D01F56071C0F3160042EA0151C20856
:1005000040071143704700200146704701F0004347
:1005100030B421F0004150EA010206D00A0DA2F5E4
:100520006072C1F31301002A02DC30BC0020704766
:10053000440F44EAC104C100E01830BC00EBC250D3
:1005400000F047B830B50B460146002020220124B8
:1005500009E021FA02F59D4205D303FA02F5491B91
:1005600004FA02F52844151EA2F10102F1DC30BDA7
:100570002DE9F05F0546002092469B4688460646D8
:10058000814640241BE02846414647462246FFF765
:10059000FAFD53465A46C01A914110D311461846E7
:1005A000224600F019FA2D1A67EB01084F46224641
:1005B0000120002100F010FA17EB00094E41201E27
:1005C000A4F10104DFDC484631462A464346BDE833
:1005D000F09F0029A8BF7047401C490008BF20F0C9
:1005E0000100704710B4B0FA80FC00FA0CF050EA39
:1005F000010404BF10BC704749B1CCF1200421FABA
:1006000004F411FA0CF118BF012121430843A3EBB4
:100610000C01CB1D4FEA00614FEA102042BF0020C1
:1006200010BC704700EBC35010440029A4BF10BC9D
:100630007047401C490008BF20F0010010BC704703
:1006400010B5141E73F1000408DA401C41F10001DA
:1006500092185B411A4301D120F0010010BD2DE931
:10066000F04D92469B4611B1B1FA81F202E0B0FA28
:1006700080F22032904600F0AFF904460F4640EA7F
:100680000A0041EA0B0153465A46084313D011466B
:1006900053EA010019D0C8F140025046FFF773FD3C
:1006A00005460E4650465946424600F095F9084325
:1006B00005D0012004E020463946BDE8F08D002039
:1006C000054346EAE0762C4337430A986305E40A7B
:1006D000A0EB08000022FD0A44EA47540A3002D584
:1006E00000200146E9E7010510196941DDE90845E7
:1006F00000196941BDE8F04DA2E72DE9FE4F8046A3
:1007000081EA0300C00F0C46009021F0004123F065
:100710000045B8EB0200A94105D24046214690466B
:100720001C460B46024623F00040104347D0270DDD
:10073000C7F30A00C3F30A510290401A01904028FF
:100740006BDAC3F3130040F4801B0098924620B18B
:100750000023D2EB030A63EB0B0B01985946C0F15F
:100760004002504600F038F906460D4650465946BC
:10077000019A00F040F910EB08006141002487EA7B
:10078000115284EAE7731A4340D0009A62B3019A87
:10079000012A4FEA075215DC001B61EB02014FF002
:1007A000004202EA0752CDE90042001C41F58011E7
:1007B00032462B46FFF753FF03B0BDE8F08F4046AB
:1007C0002146F9E7001B61EB0201001C41F5801393
:1007D00000185B412018A2F5001747EB030140EA1F
:1007E000D570B6196D4111E06D084FEA360645EA3D
:1007F000C0754FEA0752001B61EB0201001C41F576
:10080000801149084FEA30000019514132462B4609
:1008100003B0BDE8F04FFFF713BF0098012240007E
:100820000023D0EB020263EBE073009821464FEA0D
:10083000E074B8EB000061EB0401E9E783F00043EA
:100840005BE781F0004158E72DE9F04D81EA0304B0
:1008500004F0004B21F0004514464FF0000A23F04D
:10086000004150EA050220D054EA01021DD0C5F330
:100870000A570246C5F31303C1F31300C1F30A5626
:1008800040F4801543F48013A7EB0608101BD646EE
:1008900008F2FD3873EB050002D308F1010801E00E
:1008A00092185B41B8F1000F03DA00200146BDE861
:1008B000F08D00204FF48011064684460EE0171B91
:1008C00073EB050705D3121B63EB050306434CEAE4
:1008D000010C49084FEA300092185B4150EA0107C9
:1008E000EDD152EA030012D082EA040083EA050146
:1008F000084305D0101BAB4106D20122002306E0BD
:1009000000224FF0004302E06FF0010253101AEB97
:1009100006004CEB085110EB0A0041EB0B01BDE85F
:10092000F04DFFF78DBE70B521F0004303430CD0AE
:10093000C1F30A550024D5EB040564EB0403D61774
:10094000AD1AB34102DB0020014670BD201841EB17
:10095000025170BDC1F30A52C1F3130140F2FF33DB
:1009600041F480119A4202DA00200146704740F2B9
:1009700033439A42A2F2334202DC5242FFF703BCF5
:1009800000F02AB830B5041E71F1000404DB4FF00A
:100990000044404264EB0101141E73F1000405DBC6
:1009A0001C464FF00043524263EB0403994208BFD8
:1009B000904230BD064C074D06E0E06840F0010370
:1009C00094E8070098471034AC42F6D3FFF792FB47
:1009D00090580008B0580008202A04DB203A00FA9A
:1009E00002F1002070479140C2F1200320FA03F386
:1009F000194390407047202A06DBCB17203A41FA72
:100A000002F043EAE07306E041FA02F3D040C2F19B
:100A1000200291400843194670472DE9F04D00230C
:100A20001A461B1A8A4103DB00200146BDE8F08DFF
:100A3000C1F30A52C1F3130141F480154FF0000BCA
:100A4000D10702D100186D41521E0027044640F222
:100A5000FF11384601EB620A3E46804602460020FE
:100A60004FF48011FFF78FFBC2197141BB1846EBA1
:100A70000100B4EB030C75EB000C04D3E41A65EB36
:100A8000000517460E46241908F101006D41804605
:100A90003428E3DDF91946EB0600091BA84103D20F
:100AA0004FF0FF32134601E0002213461BEB070014
:100AB00046EB0A51BDE8F04DFFF7C2BDFEE77047B7
:100AC00072B6FEE72DE9F84FDFF8B8910024A9F1DE
:100AD000040B23460F2709F1040AABF1040EC9E009
:100AE0000125A5402A40AA427DD1674ED1F804C015
:100AF000ACEB0608B44532D014DCBCF1030F3AD09D
:100B000009DCBCF1000F2AD0BCF1010F1CD0BCF1F4
:100B1000020F31D11DE0BCF1110F17D0BCF1120F43
:100B20002AD119E0B8F5881F19D006DCB8F5803F46
:100B300015D0B8F5801F1FD111E0B8F5001F0ED0F9
:100B4000B8F5041F18D10AE0CB6815E0CB681B1D6F
:100B500012E0CB6808330FE0CB680C330CE08B68F5
:100B60002BB1012B4FF0080303D0456104E00423AF
:100B700002E0056100E00023FF2A01D8064601E0FB
:100B800000F104064FEA840501D9A5F12005D6F845
:100B9000008007FA05FC28EA0C0803FA05F548EA84
:100BA0000508C6F800804D68ED0062D5374DAE6986
:100BB00046F00106AE61AD6924F0030605F00105BB
:100BC0000095334D06EB050CDCF80850A607360FF0
:100BD00007FA06F825EA0805DFF8B880404503D192
:100BE0004FF0000817E044E0DFF8AC80404502D148
:100BF0004FF001080FE0DFF8A480404502D14FF02C
:100C0000020808E0DFF89880404502D14FF0030861
:100C100001E04FF0040808FA06F848EA0508CCF8A5
:100C200008804D68D9F80060ED024D4601D51643A5
:100C300000E096432E604D68DAF80060AD0255463C
:100C400001D5164300E096432E604D68DBF8006046
:100C5000AD035D4601D5164300E096432E604D6816
:100C6000DEF80060ED03754601D5164300E09643BB
:100C70002E60641C0D682A46E5407FF431AFBDE864
:100C8000F88F00000804014000001110001002401D
:100C90000000014000080140000C0140001001402C
:100CA000001401408068084000D0012070470AB15C
:100CB000016170470904FBE7014880687047000044
:100CC0001C0000200248816802781144816070474E
:100CD0001C000020074810B5016841F010010160B8
:100CE000032000F067F80F2000F006F800F024F869
:100CF000002010BD0020024070B50D4D04464FF499
:100D00007A712878B1FBF0F00A490968B1FBF0F07C
:100D100000F0DAFA48B9102C07D200222146501E02
:100D200000F028F800206C6070BD012070BD00004C
:100D30001C000020280000200C4808B5816941F003
:100D400001018161816901F001010091C16941F0F6
:100D50008051C161C06900F0805000900448416832
:100D600021F0E06141F00071416008BD00100240D7
:100D700000000140F0B40E4B1B680C46C3F3022385
:100D8000C3F10705042D00D90425191D072901D237
:100D9000002300E0DB1E012606FA05F1491E214072
:100DA00099409E40761E16403143F0BC00F0F6BBE1
:100DB0000CED00E0064900F0070208684FF6FF035B
:100DC000184040EA0220034A1043086070470000C0
:100DD0000CED00E00000FA052DE9F0470F46050094
:100DE00061D0434E306800F00700B84209D2306845
:100DF00020F0070038433060306800F00700B84248
:100E000051D128683B4C810712D5400703D5606853
:100E100040F4E06060602878000703D5606840F423
:100E2000605060606068A96820F0F000084360606E
:100E30002878C00728D06868012810D021680228C7
:100E400010D0890700292EDA616821F003010143DF
:100E50006160FFF731FF804641F288390DE021687B
:100E60008903EFE78901EDE7FFF726FFA0EB080113
:100E7000494502D90320BDE8F0876068696800F041
:100E80000C00B0EB810FEFD1306800F00700B842E2
:100E90000BD9306820F0070038433060306800F02C
:100EA0000700B84201D00120E5E72878400705D5C2
:100EB0006068E96820F4E060084360602878000713
:100EC00006D56068296920F4605040EAC10060607E
:100ED00000F038F86168084AC1F30311515CC8405A
:100EE0000649086006480068FFF706FF0020C2E7D1
:100EF00000200240001002403E4B00082800002065
:100F0000200000200448054900684968044AC1F3EC
:100F10000221515CC84070472800002000100240A8
:100F20004E4B00080448054900684968044AC1F36B
:100F3000C221515CC84070472800002000100240C8
:100F40004E4B00080E4A51680E4801F00C03042B6A
:100F500011D0082B0FD10C48C1F38343C903C05CE7
:100F60000AD55168084AC1F34041921E515C054AB6
:100F70005043B0FBF1F0704704494843704700000C
:100F80000010024000127A002E4B000800093D00BC
:100F90002DE9F84F040070D02078C04DC00749D02B
:100FA0006868C0F38100012807D06868C0F3810039
:100FB000022809D16868C00306D52868800339D59E
:100FC00060680028E7D035E06068B0F5803F0BD05E
:100FD00010B1B0F5A02F11D0286820F4803028601F
:100FE000286820F4802002E0286840F480302860DF
:100FF000606890B1FFF760FE06460AE0286840F49A
:1010000080202860F0E700BFFFF756FE801B6428B1
:1010100073D828688003F7D50CE0FFF74DFE06462D
:1010200005E000BFFFF748FE801B6428F0D8286861
:101030008003F7D420789A4E80074FF001094FF0D3
:10104000000839D5686810F00C0F07D06868C0F345
:101050008100022809D16868C00306D42868800787
:1010600014D52069012808D110E02069B0B1C6F874
:101070000090FFF721FE074605E00AE1FFF71CFE9E
:10108000C01B0228C4D828688007F7D52868616982
:1010900020F0F80040EAC10028600DE0C6F80080AA
:1010A000FFF70AFE074604E0FFF706FEC01B022812
:1010B00023D828688007F7D4207800072CD57948F2
:1010C000A169D9B1C0F80090FFF7F6FD074604E02A
:1010D000FFF7F2FDC01B02280FD8686A8007F7D51A
:1010E00071484FF4FA510068B0FBF1F0009000BF76
:1010F0000098411E0091FAD20EE080E0C0F8008016
:10110000FFF7DAFD074604E0FFF7D6FDC01B022813
:1011100075D8686A8007F7D42078400760D5E869F9
:101120000027C00008D4E86940F08050E861E86911
:10113000012700F0805000905C480168C90513D475
:101140000168834641F480710160FFF7B5FD824676
:1011500006E000BFFFF7B0FDA0EB0A0064284ED800
:10116000DBF80000C005F5D5E06801280AD008B119
:10117000052813D0286A20F001002862286A20F090
:10118000040002E0286A40F001002862E06841F2B1
:10119000883B98B1FFF790FD82460BE0286A40F04B
:1011A00004002862EEE700BFFFF786FDA0EB0A010E
:1011B00059455AD8286A8007F6D50CE0FFF77CFD20
:1011C000824605E0FFF778FDA0EB0A0159454CD8AF
:1011D000286A8007F6D41FB1E86920F08050E861E2
:1011E000E06988B36968C1F38101022944D002280B
:1011F000C6F8608004D0FFF75FFD044638E034E0B5
:10120000FFF75AFD074604E0FFF756FDC01B022812
:101210002BD828688001F7D4206AB0F5803F05D12B
:101220006868A16820F4003008436860D4E90801C8
:101230000843696821F4741108436860C6F8609037
:10124000FFF73AFD044606E025E000BFFFF734FD56
:10125000001B022809D828688001F7D51BE000BFD1
:10126000FFF72AFD001B022802D90320BDE8F88FF2
:1012700028688001F4D40EE00128F7D06868226A5B
:1012800000F48031914204D1616A00F47010884208
:1012900001D00120EAE70020E8E70000001002404A
:1012A00000004242800442422800002000700040BA
:1012B0004FF0E0210428086903D020F00400086101
:1012C000704740F00400FAE710B5401EB0F1807F8F
:1012D00001D3012010BD4FF0E02460610F216017A1
:1012E00000F05CF90020A06107202061002010BD03
:1012F00070B5040004D094F84100002510B106E058
:10130000012070BD84F84050204600F023F82420CE
:1013100084F841002068C16821F40051C160204672
:1013200000F0BAF82068016921F490410161206859
:10133000416921F02A0141612068C16841F40051EE
:10134000C1606564202084F8410084F84200656330
:10135000002070BD30B585B0002400940194029443
:10136000039400681449884224D11448816941F4E7
:1013700080418161816901F480410491816941F07A
:101380000401816180690E4D00F0040004904FF467
:1013900000700090022001900320039069462846C7
:1013A000FFF790FB2815CDE9000469462846029412
:1013B000FFF788FB05B030BD003801400010024047
:1013C00000080140FEE70000094808B5816941F0C6
:1013D00020018161816901F020010091816941F062
:1013E00004018161806900F00400009008BD0000E4
:1013F000001002400C4810B50A4901604FF4E13179
:101400004160002181600C22C160C0E90412816149
:10141000C161FFF76DFF002803D0BDE81040FFF762
:101420004FBB10BD0038014070000020FEE7FEE712
:1014300070477047FFF746BC30B58FB0282168462B
:10144000FEF7B8FE14210AA8FEF7B4FE0121080435
:10145000CDE900100024029402250491CDE9075043
:101460004FF4E01009906846FFF792FD08B172B69C
:10147000FEE70F20CDE90A054FF48060CDE90C406E
:1014800002210AA80E94FFF7A7FC002801D072B62B
:10149000FEE70FB030BD704770B5044600680169C3
:1014A000E26821F44051114301612169A0680843B9
:1014B000616908432168CA6841F20C639A43024398
:1014C000CA6020684169A26921F4407111434161F9
:1014D0001E492068884202D1FFF724FD01E0FFF792
:1014E00011FD00EBC00101EB001260686421800077
:1014F000B2FBF0F3B3FBF1F36FF018067343B2FBEA
:10150000F0F5B2FBF0F605EB8305322303EB05158E
:10151000B5FBF1F5B6FBF1F605F0F00505EB0615A8
:10152000B2FBF0F6B2FBF0F0B0FBF1F06FF0180296
:10153000504306EB800003EB0010B0FBF1F0216894
:1015400000F00F002844886070BD000000380140A2
:10155000FEE700000FB4054B10B503A9044A02983A
:1015600000F06CF910BC5DF814FB00008D3700082A
:1015700068000020490050EAC12018BF04204A0D2D
:1015800018BF40F0010040F2FF72B2EB515F08BF9C
:1015900040F00200012808BF052070470907090E26
:1015A000002804DB00F1E02080F80014704700F010
:1015B0000F0000F1E02080F8141D70472DE9F04184
:1015C0004F1E00EBC7010446D1E9000115461E4637
:1015D00037F006020DD02A463346FEF7D7FE7F1EAF
:1015E00004EBC703D3E90023FFF787F837F00602BF
:1015F000F1D1022F25D0042F13D0062F18BFBDE83C
:10160000F0812A463346FEF7C1FED4E90A23FFF7EC
:1016100074F82A463346FEF7B9FED4E90823FFF7EB
:101620006CF82A463346FEF7B1FED4E90623FFF7ED
:1016300064F82A463346FEF7A9FED4E90423FFF7EF
:101640005CF82A463346FEF7A1FED4E90223FFF7F1
:1016500054F82A463346FEF799FED4E90023BDE844
:10166000F041FFF74AB80122FFF75DB9FFF745B82F
:101670000022134610461146FFF7E6B8024A002042
:101680001107FFF750B9000001FDFFFF02E008C895
:10169000121F08C1002AFAD170477047002001E0EC
:1016A00001C1121F002AFBD17047000001490860E8
:1016B000704700006C0000202DE9FF5F82B0002120
:1016C000DDE90430020DDDF840B0034318D044F6E4
:1016D0001050A2F2FF3242431514119801281FD076
:1016E000A5EB0B00401C5FEA000A4FF000064E4FCE
:1016F000DFF83891B046504615D5CAF1000413E022
:10170000119801244AA3012801D16FEA0B01029824
:10171000119AC0E90031C0E9024206B0BDE8F09F6D
:10172000CBF10000DFE704460021404A491842EBB4
:101730000450CDE9001012E0E00707D032463B46E6
:1017400040464946FEF722FE8046894632463B46E1
:1017500010461946FEF71AFE06460F466410002C86
:10176000EAD1DDE90401DDE90023BAF1000F06DA70
:10177000FEF70CFE42464B46FEF708FE05E0FFF77B
:1017800063F842464B46FFF75FF804460E460022D8
:10179000284BFFF7F7F803D84FF0FF30014607E07A
:1017A0000022254B20463146FEF7A7FFFFF7D2F86F
:1017B000102409E0002C0ADB0A220023FEF7D8FEE1
:1017C000039B30321A55641E50EA0102F2D1641CA8
:1017D000039AC4F111031444119A012A03D001227F
:1017E00008430DD10AE0084304D000204FF0110B4C
:1017F000119072E7A3EB0B056D1E0DE05B4504DD58
:101800004FF0000205F1010504E003DA4FF0000299
:10181000A5F10105002AECD002981199C0E9023126
:10182000C0E9004579E70000000014400000F03FE7
:10183000300000000000F0430000E03F2DE9FF4FC2
:1018400095B09B468946064600250FE2252877D1AC
:1018500000242746F84A0121059400E0044316F8C5
:10186000013F203B01FA03F01042F7D130782A28DB
:1018700011D06FF02F033078A0F13002092A16D86A
:10188000059A44F0020402EB820203EB4202104488
:10189000761C0590EFE759F8042B0592002A03DA2D
:1018A000504244F40054059044F00204761C307811
:1018B0002E2816D116F8010F44F004042A280DD062
:1018C0006FF02F023078A0F13003092B09D807EB15
:1018D000870302EB4303C718761CF3E759F8047B30
:1018E000761C30786C280FD006DC4C2817D068287E
:1018F0000DD06A2814D104E0742810D07A280FD1B2
:101900000DE044F400140AE044F4801401E044F4CF
:1019100040147278824202D104F58014761C761C41
:10192000307866280BD013DC582877D009DC0028E3
:1019300075D04528F6D04628F4D047281AD19DE125
:1019400018E0632835D0642879D0652812D195E154
:10195000702873D008DC6728F1D069286FD06E2812
:101960000DD06F2806D1B5E073282CD0752875D01E
:10197000782874D05A46179990476D1C75E1C4F3C6
:101980000250022809D003280DD0D9F800100428ED
:101990000DD00D6009F1040967E1D9F80010EA17CC
:1019A000C1E90052F6E7D9F800100D80F2E70D709A
:1019B000F0E719F8041B8DF8001000208DF80100E5
:1019C000EA46012003E059F804AB4FF0FF3061070D
:1019D0004FF0000102D40DE008F101018846B94240
:1019E0000FDA8045F8DB1AF808100029F4D108E076
:1019F00008F1010188468142FADB1AF80810002933
:101A0000F6D105985B46A0EB080721463846179AA1
:101A100000F094FA284400EB080507E04DE029E1C6
:101A20000DE01AF8010B5A4617999047B8F10108D2
:101A3000F7D25B4621463846179A13E142E00A2264
:101A40000092C4F302524FF0000A022A08D059F85B
:101A500004CB032A4FEAEC710AD00DE029E02AE01A
:101A600009F1070121F00702F2E802C1914609E0FD
:101A70000FFA8CFC4FEAEC71042A03D14FFA8CFC6C
:101A80004FEAEC71002907DA0A460021DCF1000C6C
:101A900061EB02012D2202E0220504D52B228DF8F4
:101AA0000420012203E0E20701D02022F7E790465C
:101AB00059E00A2102E010220DE010214FF0000A47
:101AC00000910BE010224FF0000A44F004040827B4
:101AD000009203E008224FF0000A0092C4F3025281
:101AE000022A05D059F804CB0021032A08D009E0C6
:101AF00009F1070121F00702F2E802C1914605E071
:101B00001FFA8CFC042A01D10CF0FF0C4FF00008E6
:101B1000220728D5702806D0009B83F0100353EAD3
:101B20000A0305D00EE040228DF80420012208E0CF
:101B30005CEA010206D030228DF804208DF8050001
:101B400002229046009B83F0080353EA0A030AD15D
:101B50005CEA010201D1620705D530228DF804202C
:101B60004FF001087F1E582804D034A003900EA81F
:101B700002900DE036A0F9E753466046009AFEF762
:101B8000F7FC84460398825C0298401E0290027023
:101B90005CEA0100F0D1029806A9081A00F1200AB7
:101BA000600702D524F4803400E00127574502DDA8
:101BB000A7EB0A0000E0002000EB0A010090059866
:101BC0004144401A0590E00306D45B462146179A2B
:101BD000059800F0B3F90544002706E001A85A462D
:101BE000C05D179990476D1C7F1C4745F6DBE003ED
:101BF0000CD55B462146179A059800F09FF90544DD
:101C000004E030205A46179990476D1C0099481EF1
:101C100000900029F5DC08E0029802995A46007805
:101C2000491C0291179990476D1CBAF10001AAF165
:101C3000010AF1DC65E1000009280100303132338E
:101C400034353637383961626364656600000000F8
:101C500030313233343536373839414243444546E2
:101C60000000000000F058F90544761C3078002888
:101C70007FF4ECAD19B02846BDE8F08F620700D4C0
:101C8000062709F1070222F0070CFCE80223E146CF
:101C900003F000485FEA080C02D00FF2702C0DE050
:101CA0005FEA045C02D50FF2682C07E05FEAC47CAF
:101CB00002D00FF2602C01E0AFF2700C4FF0FF3851
:101CC00023F00043CDF850C065280CD006DC452831
:101CD00009D046281DD047283DD13DE0662818D0C0
:101CE00067287ED138E00021112F01DB112000E0B0
:101CF000781CCDE9000106A90EA8FFF7DDFCDDE99F
:101D00000F010E9A03910021009207F1010A04913C
:101D10004DE04FF000400097CDE9011006A90EA854
:101D2000FFF7CAFCDDE90F0203920E9B1199002216
:101D3000DDF80CA00093049211B9791C00EB010AA4
:101D4000B7EB0A0004D4C0F1FF3007F1010A049098
:101D5000AAEB0700019044E0012F00DA01270021DF
:101D6000112F01DD112000E03846CDE9000106A960
:101D70000EA8FFF7A1FCDDE90F010E9A03910021E7
:101D800004910092BA4621070CD40399514500DA18
:101D90008A46BAF1010F05DD009AAAF10101515CF2
:101DA000302908D0B84202DA10F1040F06DA012116
:101DB000CDE9011015E0AAF10101E9E7002805DCF1
:101DC000049901440491AAEB000102E0411C514531
:101DD00000DD8A460499401A401C01904FF00040F3
:101DE0000290200704D40198504501DBCDF804800F
:101DF00000208DF84F0002980DF14F07B0F1004F11
:101E000025D02B200E9002984FF0020800280CDA03
:101E1000404202902D200E9007E00A210298FEF722
:101E200091FB3031029007F8011DB8F10001A8F1D3
:101E30000108F2DC02980028EFD1791E0E98087094
:101E4000307800F0200040F0450007F8020D12A89D
:101E5000C01B00F107081498007800B1012000EBC6
:101E60000A01019801EBE07105984144401A401EB7
:101E70000590E00306D45B462146179A059800F0CA
:101E80005DF805441498007818B15A4617999047A0
:101E90006D1CE00324D55B462146179A059800F097
:101EA0004DF805441CE00498002807DBDDE9030138
:101EB000884203DD0098405C179901E017993020B3
:101EC0005A469047049805F10105401C049001987A
:101ED000401E019004D12E205A46179990476D1C40
:101EE000BAF10001AAF1010ADDDC05E017F8010BE7
:101EF0005A46179990476D1CB8F10001A8F10108E6
:101F0000F4DC5B462146179A0598ABE62D000000ED
:101F10002B000000200000002DE9F04104460025C0
:101F20001E461746880404D405E039462020B047F1
:101F30006D1C641EF9D52846BDE8F0812DE9F041FD
:101F4000044600251E469046C80301D5302700E010
:101F50002027880404D505E041463846B0476D1C6B
:101F6000641EF9D52846BDE8F08100002DE9FE4F3A
:101F700007460E460025684601F014FC00246FF069
:101F80000F0AE8464FF0010957F8240056F82410CC
:101F9000401A00D54042FEF76BFA5146FEF7EAF9C7
:101FA00058F8241011F0FF4F0BD0FEF7A5F94FF0B1
:101FB0007E51FEF769F90A4920F00040884205DCAD
:101FC00007E0084908440849884202D309FA04F0A6
:101FD0000543641C032CD7DB2846BDE8FE8F0000B8
:101FE000295C0F3E666666C19A99D9002DE9F04DCD
:101FF0008D4F21F0004A86B005460C46BA452ADBD3
:10200000AAEB070028430AD08848824501DC1AD190
:10201000CDB106B02846BDE8F04DFFF724BB844A99
:10202000844B2846FEF7B2F907460E46824A834B98
:1020300028462146FEF7AAF906B03A463346BDE8DF
:10204000F04DFEF75ABB0120FFF730FB06B0BDE8AC
:10205000F04DFFF70DBB7A48824542DABAF1795F5D
:102060000BDA2846FFF786FA042808BFFFF706FBBD
:10207000284606B02146BDE8F08D2A460B4610469C
:10208000FEF784F9834602466E480E460B4606214B
:102090007844FFF793FA5A463346FEF777F98046BD
:1020A00069488A465A46334604217844FFF786FA3F
:1020B0005A463346FEF76AF900223B46FEF71DFBFF
:1020C00002460B4640465146FEF7BEFB2A462346D3
:1020D000FEF75CF906B02A462346BDE8F04DFEF750
:1020E0000CBB284624F0004100223D463B46FEF74B
:1020F000A8FB4FF0FF32FEF716FC06460246534897
:102100000F460B4606217844FFF758FA32463B4605
:10211000FEF73CF9CDE900014D4832463B4604212B
:102120007844FFF74BFA32463B46FEF72FF9002280
:102130002B46FEF7E2FA834602913046394602F01A
:10214000CFFC804643480D46504517DCDDE90001D1
:102150005A46029BFEF778FB42462B46FEF716F9DD
:1021600042462B46FEF7C9FA0122FEF7DCFB304A55
:10217000304BFEF763FB304A304B4CE04FF0000A27
:1021800052460B464046FEF7B8FACDE903105246D8
:102190002B4610461946FEF7F9F832463B46FEF745
:1021A00050FBDDE90332FEF74FFB06460F46DDE943
:1021B00000015A46029BFEF747FB8346009101222D
:1021C00030463946FEF7AFFB194A1A4BFEF739FB8A
:1021D00006460F46012240462946FEF7A4FB5A4612
:1021E000009BFEF7D3F832463B46FEF727FB064638
:1021F0000F46012250462946FEF795FB0E4DDFF8AB
:1022000058802A464346FEF71CFB32463B46FEF703
:1022100018FB2A464346FEF714FB002CD8BF81F07A
:10222000004106B0BDE8F08D0000F03F0000F07FF7
:10223000075C143326A6913C182D4454FB21F93F2A
:102240000000E03F0C370000223700009636000007
:10225000AC3600003333EF3FFB21E93F2DE9F84F67
:1022600004460D4621F0004000917349814211DC83
:102270007249884201DC06D12CB120462946BDE8CE
:10228000F84FFFF7F0B96E48002DCCBF6D496E498D
:10229000BDE8F88F6D49814211DD6D498142D8BF9B
:1022A0004FF0FF366DDD20462946FFF763F904281D
:1022B00008BFFFF7E3F920462946BDE8F88F6549D6
:1022C000654F25F00045814233DD6449814219DDC7
:1022D000002632464FF0804320462946FEF70DFA8D
:1022E00080468A46012220462946FEF71CFB002232
:1022F0003B46FEF7A3FA42465346FEF7A5FA0446CC
:102300000D463EE001260022BA463B4620462946BD
:10231000FEF7F3F980460F46002253462046294631
:10232000FEF78CFA42463B46FEF78EFA04460D460F
:1023300027E04B4981421BDDDFF828A1022600225D
:10234000534620462946FEF721F800223B46FEF779
:10235000D4F980460F460022534620462946FEF710
:102360006DFA42463B46FEF76FFA04460D4608E01A
:10237000032622462B4600203B49FEF765FA044619
:102380000D4622462B4610461946FDF7FFFF8B46A9
:10239000824602460B46FDF7F9FF074602463348E0
:1023A00088460B4606217844FFF708F952465B46FB
:1023B000FDF7ECFF82462E488B463A464346052100
:1023C0007844FFF7FBF83A464346FDF7DFFF024645
:1023D0000B46002E504659460CDAFEF78EF922467F
:1023E0002B46FDF7D3FF01B022462B46BDE8F04F48
:1023F000FEF727BAFEF781F922462B46FDF7C6FF06
:102400001C4A7A4402EBC603D3E90023FEF716FA0E
:1024100022462B46FEF712FA174A7A4402EBC6030D
:10242000D3E90023FEF70DFA009A002AB8BF81F025
:102430000041BDE8F88F0000000010440000F07F6C
:10244000182D4454FB21F93FFB21F9BF0000DC3F6C
:102450000000203E0000F33F0000F03F0000E63F98
:10246000008003400000F83F0000F0BFAE340000E1
:102470006C3400000A340000D23300002DE9F04D26
:102480009446CCF1000423F000464CEA0404524F79
:1024900046EAD4749A46884621F00042BC4206D8E7
:1024A000454240EA050442EAD474BC4204D9BDE87E
:1024B000F04D6246FFF7DAB8AAF14055A5F17F6505
:1024C00055EA0C040BD0022404EAAA74434DDFF849
:1024D00010E144EAD87452EA000B04D00CE0BDE8E5
:1024E000F04DFFF7BBBE002C14BF012CBDE8F08DF2
:1024F000022C30D0032C32D056EA0C0B0AD0BE424C
:1025000020D1BA4209D126F0804622F080423346DB
:10251000114617E000291ADB25E0DFF8C8B0FB44BC
:10252000002C04BFDBE90001BDE8F08D012C02BFE7
:10253000DBE9000181F00041BDE8F08D022C0AD0FA
:10254000032C0CD0BA4212D1B8F1000F0BDA234899
:102550002549BDE8F08D28462449BDE8F08D284680
:102560007146BDE8F08D1D482149BDE8F08D921BF4
:1025700012153C2AC4BF19481D490EDCBAF1000FE0
:10258000BEBF12F13C0F0020014606DB6246FEF79B
:102590005BF921F00041FFF761FE002C08BFBDE8A8
:1025A000F08D012C04BF81F00041BDE8F08D114A8F
:1025B000114B022C07D0FEF741F92A46BDE8F04D39
:1025C0000A4BFEF73BB9FEF739F92A46BDE8F04D54
:1025D000064BFEF736B900000000F07F182D44547A
:1025E000FB2109C066330000FB21F9BFFB21094034
:1025F000FB21F93F075C143326A6A13C2DE9F74FD8
:102600008EB00CA902A8CDE900010BAB03AA09A961
:1026100007A800F071FD00287ED1BDF80800C005B4
:102620007AD50398FDF724FF6FF01D042146FDF7CE
:10263000A1FE82460498FDF71BFF2146FDF79AFE96
:1026400081460598FDF714FF2146FDF793FE80466D
:102650000698FDF70DFF2146FDF78CFE054601218A
:102660005046FDF787FE06464146FDF713FE044639
:102670004FF040414846FDF70DFE07462946FDF75D
:1026800009FE2146FDF7AEFDFDF72DFFFFF7AEFC7D
:102690004FF0663B5A463F4BFDF778FEFDF736FF9D
:1026A0000E99086001214046FDF764FE4146009006
:1026B000FDF7F0FD044638464946FDF7EBFD21469F
:1026C000FDF7E2FD4FF07E51FDF78CFDFDF70BFFAE
:1026D00007460C4630464946FDF7DCFD06462946CE
:1026E0000098FDF7D7FD3146FDF77CFDFDF7FBFEB9
:1026F0003A462346FFF7C2FE5A46264BFDF746FEF2
:10270000FDF704FF0F99086029460846FDF7C2FD52
:1027100007464146084600E039E0FDF7BBFD0646A6
:1027200049460846FDF7B6FD044651460846FDF702
:10273000B1FD2146FDF756FD3146FDF7A5FD3946B1
:10274000FDF7A2FDFDF7CFFE06460C462946504692
:10275000FDF7A0FD054641464846FDF79BFD29468D
:10276000FDF740FD0121FDF705FEFDF7BCFE3246F9
:102770002346FFF783FE5A46064BFDF707FEFDF79B
:10278000C5FE10990860002011B0BDE8F08F01204F
:10279000FAE7000066A64C4070B5002001F0D8FBB7
:1027A0000446782002F068F80444782001F002FB27
:1027B0000444642002F020F8044400F093FC05195E
:1027C0001348044601F038FA0646E01C01F034FADA
:1027D00046EAC006A01D01F02FFA46EA801080B23A
:1027E00000F030FE441940F2731000F053FB044433
:1027F000642000F08FFD0444012001F023FF044415
:1028000000F021FA204410F0FF0000D0012070BD3C
:102810005C0000207CB514460D4606466B46062239
:102820003B21682000F0D2F900280BD1BDF8001040
:1028300049BA3180BDF8021049BA2980BDF80410A8
:1028400049BA21807CBD10B5040004D0FEF734FAEB
:102850002060002010BD012010BD7CB514460D463F
:1028600006466B4606224321682000F0AFF9002897
:102870000BD1BDF8001049BA3180BDF8021049BA39
:102880002980BDF8041049BA21807CBD38B50546C1
:102890006B4602224121682000F098F9040011D112
:1028A000BDF8000040BA00B2FDF7E2FD0649FDF7B1
:1028B00023FD0649FDF796FC0549FDF7EBFCFDF706
:1028C000E5FD2880204638BD0000AA43B81E12420C
:1028D0000000C84210B5114C002280212046FEF7AE
:1028E000E6F9022000F09EFA012240212046FEF780
:1028F000DEF9022000F096FA002240212046FEF781
:10290000D6F9022000F08EFA012280212046FEF73F
:10291000CEF9BDE81040022000F084BA000C01405E
:10292000154810B5816986B041F00801816181695F
:1029300001F008010491816941F008018161806919
:102940000E4C00F0080004904020009001200190FF
:1029500002900320039069462046FEF7B3F88020DA
:1029600000901120019069462046FEF7ABF800F078
:10297000A3F806B010BD000000100240000C01409A
:1029800010B50D4C012280212046FEF790F902205F
:1029900000F048FA012240212046FEF788F9022083
:1029A00000F040FA002240212046FEF780F9BDE801
:1029B0001040022000F036BA000C01402DE9F04131
:1029C0000024144E074625466006040E01224021CD
:1029D0003046FEF76CF9022000F024FA80213046E0
:1029E000FEF760F908B1641CE4B2002240213046D1
:1029F000FEF75DF9022000F015FA6D1CEDB2082D0E
:102A0000E2D327B1FFF766FF2046BDE8F081FFF76C
:102A1000B7FFF9E7000C014070B5144E05460024DD
:102A2000280601D5012200E0002280213046FEF771
:102A30003EF9022000F0F6F9012240213046FEF76F
:102A400036F9022000F0EEF9002240213046FEF770
:102A50002EF96806641C050EE4B2082CE0D330465B
:102A6000BDE8704001228021FEF721B9000C014031
:102A700010B5104C012280212046FEF718F90122E2
:102A800040212046FEF713F9022000F0CBF9002286
:102A900080212046FEF70BF9022000F0C3F9002246
:102AA00040212046FEF703F9BDE81040022000F067
:102AB000B9B90000000C014010B50D4C0022802176
:102AC0002046FEF7F4F8022000F0ACF90122402184
:102AD0002046FEF7ECF8022000F0A4F90122802144
:102AE0002046FEF7E4F8BDE81040022000F09AB955
:102AF000000C014070B5164E0024254601228021AD
:102B00003046FEF7D4F8022000F08CF90122402173
:102B10003046FEF7CCF8022000F084F907E0641C90
:102B2000E4B2FA2C03D9FFF7C7FF012505E08021A5
:102B30003046FEF7B7F80028F1D100224021304698
:102B4000FEF7B5F8022000F06DF9284670BD0000D0
:102B5000000C014008B5FFF7E3FE00F0F4F8032095
:102B600000F0B7F8002000F0AEF8322000F0D0F806
:102B700000223821682000F023F900226A21682011
:102B800000F01EF900222321682000F019F98022AC
:102B90003721682000F014F96A467521682000F09A
:102BA0004EF89DF80000682801D0012008BD0122E0
:102BB0006B21682000F004F900226C21682000F0ED
:102BC000FFF8322000F0A4F8002008BD2DE9F04104
:102BD0001D4614460F460646FFF74AFF7006000ED4
:102BE000FFF71AFFFFF786FF012812D03846FFF7DC
:102BF00013FFFFF77FFF01280BD0FFF739FF0120FC
:102C000000EB4600C0B2FFF707FFFFF773FF012894
:102C10000FD1FFF751FF0220BDE8F081012C01D94F
:102C2000012000E00020FFF7C9FE641E05F8010B3B
:102C3000E4B2002CF2D1FFF73FFF0020ECE713468F
:102C40000122FFF7C3BF10B588B0694604A801F0A0
:102C5000DFFB032802D0012008B010BD07A801F057
:102C60002DF90498FDF704FC07990C46FDF712FBBB
:102C7000FDF70CFC04900598FDF7FAFB2146FDF7E3
:102C800009FBFDF703FC05900698FDF7F1FB2146D3
:102C9000FDF700FBFDF7FAFB069004A800F06CFBC3
:102CA00003A801F0CFF8BDF80C0000994143009152
:102CB000019941430191029941436846029100F014
:102CC000BDFA0020C8E7C006020E1C21682000F0F3
:102CD00077B8C006020E1B21682000F071B8BC282E
:102CE00001D3012210E0622801D302220CE02A283D
:102CF00001D3032208E0142801D3042204E00A28A7
:102D000001D3052200E006221A21682000F058B8FD
:102D100010B504464FF47A70844201D9044602E0AB
:102D2000042C00D20424B0FBF4F0401EC2B21921DE
:102D3000682000F045F8002804D16008BDE8104084
:102D4000FFF7CDBF10BD10B580226B21682000F0C9
:102D500037F8642000F048F800226B21BDE81040ED
:102D6000682000F02DB82DE9F0411E4615460F46AB
:102D70000446FFF77DFE6006000EFFF74DFEFFF7ED
:102D8000B9FE012818D03846FFF746FEFFF7B2FE1D
:102D9000012811D0002408E0305DFFF73DFEFFF769
:102DA000A9FE012808D0641CE4B2AC42F4D3FFF7BA
:102DB00083FE0020BDE8F081FFF77EFE0220F9E7E8
:102DC00007B502AB0122FFF7CEFF0EBD10B50446DA
:102DD0004FF0E02100200861FEF76AFA0149E0089F
:102DE000088010BD2C0000204FF47A7170B5B0FB44
:102DF000F1F2B0FBF1F501FB1204094E03E030469D
:102E000000F010F86D1E002DF9D1002C06D04FF403
:102E10007A706043BDE8704000F004B870BD0000F7
:102E200040420F000B49098848434FF0E0214861B8
:102E300000228A61086940F0010008610869C3073F
:102E400001D0C003FAD5086920F0010008618A6149
:102E5000704700002C00002008B560B120208DF8DC
:102E6000000028208DF8010030208DF80200382065
:102E70008DF8030004E0A32204216846FDF793F9CE
:102E80006A46042140F69E2001F052FD01F010FA3E
:102E900008BD00003EB5044602208DF80000CA209F
:102EA0008DF80100E3208DF8020009208DF8030061
:102EB0006A460421682001F03BFDA3208DF8000044
:102EC000610609D5C0218DF80110C8218DF80210C6
:102ED000C2218DF8031005E08DF801008DF8020085
:102EE0008DF8030014F4C07F09D0C4218DF80410BC
:102EF000CC218DF80510C6218DF8061005E08DF85F
:102F000004008DF805008DF806008DF808008DF896
:102F100007008DF809006A460A2140F6A72001F053
:102F200007FDA0074FF0D80503D020208DF8000042
:102F300001E08DF800506A46012140F6B62001F00C
:102F4000F7FCA00601D5012000E0002000F08EF87B
:102F500014F4C07F1ED0E0050AD5B2208DF8000021
:102F60008B208DF80100B6208DF802009B2009E02F
:102F7000B0208DF8000080208DF80100B4208DF87D
:102F8000020090208DF803006A46042140F6A2203A
:102F900001F0CEFCE1074FF40B6022D0F8218DF850
:102FA00000106A46012101F0C3FCFA21072000F05D
:102FB00039FB072000F004FB012000F021FB642016
:102FC00000F0C4FB4FF4FA7000F0D0FBC821254894
:102FD00000F0BEFA282000F0D3FA0A2000F0E0FA50
:102FE00005E08DF800506A46012101F0A1FCA00720
:102FF00003D5D9208DF8000001E08DF800506A4615
:10300000012140F23D7001F093FC600701D50120E1
:1030100000E0002000F048F8E00601D5012000E0C3
:103020000020FFF719FF104D44F00800688101F0FF
:103030003FF90020A873600601D50620A87314F498
:10304000C07F02D0A87B801DA87314F0140F02D09B
:10305000A87B1030A873A00702D0A87B001DA8731E
:1030600000203EBD09E3CA02B80000200EB54FF4AF
:10307000976310B106A107C901E008A207CA8DE84D
:1030800007006A460921184601F052FC0EBD0000F7
:10309000B8AAB38DB4980D355D000000B8AAAAAAED
:1030A000B088C3C5C700000008B560B1C0208DF866
:1030B0000000C2208DF80100C4208DF80200C62057
:1030C0008DF8030004E08B2204216846FDF76BF8BD
:1030D0006A46042140F6982001F02AFC01F0E8F845
:1030E00008BD0000C8234FF48062024940F6F63064
:1030F00000F0C0BFA84B00082DE9FF4F89B017466C
:10310000DDE9165200244C4E884681462C80A246AA
:10311000B07B694601F05AF84FF0FF3B18B15846B2
:103120000DB0BDE8F08F708910F0140F3CD00099FD
:1031300009BA21F0FF039DF803100B433B6001998E
:103140001B1409BA21F0FF029DF807105B430A43E4
:103150007A6002999DF80B4009BA21F0FF012143E2
:10316000B960039C091424BA24F0FF0C9DF80F40A9
:1031700012144CEA040CC7F80CC04FEA2C47494320
:1031800002FB023207FB071111441024A1F1706108
:10319000B1F1007F04D901F08BF8A5F800A0BEE7DB
:1031A000298841F4807129804206694611D50A199F
:1031B000A41D13885BBAA8F8003053885BBAA8F83E
:1031C0000230928852BAA8F804202A8842F00802F5
:1031D0002A8010F4C07F11D00A19A41D13885BBA8D
:1031E000A9F8003053885BBAA9F80230928852BA25
:1031F000A9F804202A8842F070022A80800716D09D
:103200000C44E07800F0C00500F03F016078C00792
:1032100006D0C80801F007013268491C02B1904786
:103220006078000703D5716809B1A80988470C9830
:10323000FFF709FB002073E7B80000202DE9FF41EC
:10324000044603A800F0FEFDBDF80C00410CC303CA
:1032500000BF2F48028902F00300550754F82000F0
:1032600000D54042C2F3C105960654F8255000D55A
:103270006D42C2F38116D20554F8264000D564424F
:10328000A0FB0367C21702FB037200FB0120820050
:1032900042EA9670A5FB0367EA1702FB037205FB7F
:1032A0000122950045EA9672A4FB0367E51705FB2A
:1032B000037304FB01318B0043EA9671030E8DF812
:1032C0000030030C8DF80130030A8DF802308DF8C0
:1032D0000300100E8DF80400100C8DF80500100A84
:1032E0008DF80600080E8DF80800080C8DF809000E
:1032F000080A8DF80A008DF807208DF80B106A4631
:103300000C214FF4257001F013FB04B0BDE8F081EF
:10331000B800002030B5044613A285B007CA8DE876
:1033200007004FF0FF35C82C16D8C820B0FBF4F1C9
:10333000491E080A8DF80C008DF80D1003AA022111
:1033400040F2162001F0F4FA30B96A460C2140F63A
:10335000C12001F0EDFA10B1284605B030BD054896
:1033600084810020F9E70000FEF2ABC4AAF1DFDFA0
:10337000BBAFDFDFB8000020F8B53049098901F0A4
:10338000030250F822404A0700D56442C1F3C1024B
:103390008B0650F8222000D55242C1F3811350F819
:1033A0002330C80500D55B42254984FB01408500D8
:1033B00045EA947082FB0142A40F44EA820483FB35
:1033C0000121950F45EA8105010E8DF80010010CD1
:1033D0008DF80110010A8DF802108DF803006A467D
:1033E00004214FF4747001F0A3FA4FF0FF3688B94E
:1033F000200E8DF80000200C8DF80100200A8DF8B9
:1034000002008DF803406A4604214FF4757001F004
:103410008FFA08B13046F8BD280E8DF80000280C50
:103420008DF80100280A8DF802008DF803506A46D5
:1034300004214FF4767001F07BFAF8BDB80000204B
:1034400009E3CA022DE9FF4104463CA004F003034E
:10345000006802903AA0006803903AA006683AA07B
:10346000056802A8C15C8DF80010C4F3C101425C7C
:103470008DF80120C4F38112805C8DF8020003A84E
:10348000C35C8DF80430415C8DF80510805C8DF8CC
:1034900006006A46032140F2264001F049FA4FF047
:1034A000FF37E0BB01AA032140F22A4001F040FAB5
:1034B000A8BBCDE9006560070BD59DF8000040F082
:1034C00001008DF800009DF8040040F001008DF827
:1034D0000400A0060BD59DF8010040F001008DF816
:1034E00001009DF8050040F001008DF80500E005A1
:1034F0000BD59DF8020040F001008DF802009DF808
:10350000060040F001008DF806006A4603214FF4E2
:10351000886001F00DFA10B901AA032100E004E06F
:1035200040F2314001F004FA18B1384604B0BDE869
:10353000F081064804810020F8E700004CCD6C00C3
:103540000CC92C003656760026466600B8000020CE
:103550004FF47A7290FBF2F008B54843010E8DF8F3
:103560000010010C8DF80110010A8DF802108DF881
:1035700003006A4604214FF4AE7001F0D9F908BD8A
:103580000521B0FBF1F008B5010A8DF800108DF8A7
:1035900001006A4602214FF4AD7001F0C9F908BD7F
:1035A0000521B0FBF1F008B5010A8DF800108DF887
:1035B00001006A4602214FF4AC7001F0B9F908BD70
:1035C00008B500218DF80010C10702D030218DF818
:1035D0000010810705D59DF8001041F00C018DF811
:1035E0000010400705D59DF8000040F003008DF85D
:1035F00000006A4601214FF4A47001F099F908BD5A
:1036000008B560B1042800D90420401E8DF80000E0
:103610006A46012140F24F1001F08AF908BD0120ED
:10362000F3E700002DE9FC41054640074FF0FF3667
:103630007CD0B1F5C86F79D80846FCF722FF3E4927
:10364000FCF75AFE074601A800F0DEFB9DF80400D7
:10365000022806D004280DD008282ED0102865D1C5
:1036600034E00E213846FCF785FEFCF728FF84B2D3
:10367000324907E00D213846FCF77CFEFCF71FFFBE
:103680002F4984B23846FCF705FEFCF718FF210AE3
:103690008DF8001080B28DF80140010A8DF80210FB
:1036A0008DF80300E8076C4620D0224602214FF433
:1036B000EA7001F03DF9C8BB11E00C213846FCF777
:1036C00059FEFCF7FCFE84B21E49DBE70B213846AD
:1036D000FCF750FEFCF7F3FE84B21B49D2E7A21CB4
:1036E00002214FF4927001F023F9F8B9A8070DD523
:1036F0006A4602214FF4EC7001F01AF9B0B9A21C2D
:1037000002214FF4947001F013F978B9680710D5CD
:103710006A4602214FF4EE7001F00AF930B9A21C9A
:1037200002214FF4967001F003F910B13046BDE864
:10373000FC810020FBE700000000484300004046F9
:103740000000C045000040450000C0440521B0FB1A
:10375000F1F008B5010A8DF800108DF801006A46F5
:1037600002214FF4EF7001F0E3F808BD0521B0FB32
:10377000F1F008B5010A8DF800108DF801006A46D5
:1037800002214FF4ED7001F0D3F808BD04490A6836
:103790005206FCD5024AC1B2121D116070470000EA
:1037A000003801402DE9FE430646264801AB0422BD
:1037B00040680D210078FFF709FA10B10720BDE835
:1037C000FE839DF804101C2000EAD1029DF807102A
:1037D000DFF87490C1F301131A438DF800209DF8AF
:1037E0000520C1F3810300EAD2021A438DF80120BB
:1037F0009DF8062001F0030100EAD20008430024EE
:10380000124F8DF80200A0466D46285D10B146F8B3
:1038100024900AE046F824800DE000BF56F824000A
:103820003946FCF737FD46F82400285D401E10F0AD
:10383000FF002855F2D1641CE4B2032CE5D300202C
:10384000BDE70000300000207B14AE3E1D5A843FCF
:103850002DE9FE4F05460120C14E8DF800004FF0C6
:1038600000088DF8018030680C461746817C70682E
:103870006B4602220078FFF776FA4FF0FF3A0028F5
:103880007AD1C820FFF7B0FA8DF8008030686B4617
:103890000122C17B70680078FFF765FA0028EFD13C
:1038A00030686B460122417970680078FFF75BFA57
:1038B0000028E5D130686B460122817C7068007871
:1038C000FFF751FA0028DBD130686B460122C17D39
:1038D00070680078FFF747FA0028D1D130686B464E
:1038E0000122017970680078FFF73DFA0028C7D1FE
:1038F0004FF00C098DF8009030686B460122017979
:1039000070680078FFF72FFA002835D10F20FFF7F5
:103910006BFAB06A6B460122407A8DF8000030687D
:10392000817870680078FFF71EFA002824D1B06A09
:103930006B460122007A8DF800003068417870688B
:103940000078FFF710FA002873D1B06A807A0FB1BF
:1039500040F0E0008DF8000030686B46012281796C
:1039600070680078FFF7FFF9002862D12FB1B06AC4
:10397000C07A40F0E00001E04AE018208DF8000035
:1039800030686B460122C17970680078FFF7EBF967
:10399000F0BB17B1C820FFF727FA40208DF80000D0
:1039A00030686B460122017970680078FFF7DBF917
:1039B00070BB78208DF8000030686B460122417999
:1039C00070680078FFF7CFF910BB3220FFF70CFAD0
:1039D0008DF80080306847466B4641797068012257
:1039E0000078FFF7C0F998B931687068B046897AF5
:1039F00000786B460222FFF7E9F848B9BDF80000ED
:103A0000AF6040BAB0FBF9F06F60C6B22F6000E063
:103A10000FE0A76067602760002739E0D8F8001042
:103A2000D8F804006B46C97A00780C22FFF7CEF86C
:103A300010B15046BDE8FE8FBDF80000236840BAC3
:103A400002B2BDF80200BDF804101A44226040BA68
:103A5000626800B21044606049BAA06809B20844C4
:103A6000A060BDF806002B6840BA02B2BDF808009D
:103A70001A4440BA01B2BDF80A002A606A6840BA26
:103A800011446960A96800B208447F1CFFB2A860B5
:103A9000B742C3D328688322C117090441EA104101
:103AA00000040023FCF73EFB32460023FCF73AFB00
:103AB000286068688322C117090441EA10410004A4
:103AC0000023FCF72FFB32460023FCF72BFB68603A
:103AD000A8688322C117090441EA104100040023A9
:103AE000FCF720FB32460023FCF71CFBA860206893
:103AF0004FF40065C117090441EA104100042A4649
:103B00000023FCF70FFB32460023FCF70BFB206081
:103B100060682A46C117090441EA104100040023E5
:103B2000FCF700FB32460023FCF7FCFA6060A0685B
:103B30002A46C117090441EA104100040023FCF79A
:103B4000F1FA32460023FCF7EDFAA060002802DD0E
:103B5000A0F5803001E000F58030A060002069E72A
:103B6000300000202DE9F84F81462E488846002578
:103B700040686B46032200780D21FFF727F810B14B
:103B80000720BDE8F88F9DF80000002400F01F001A
:103B90008DF800009DF801006FF00F0B00F01F0082
:103BA0008DF801009DF802006E4600F01F008DF8B0
:103BB00002004FF0010A00BF59F8241058F8240001
:103BC000081A00D54042FCF753FC5946FCF7D2FBDB
:103BD0000746305DC0B1144802E01449FCF75AFBB7
:103BE000315D491E11F0FF013155F6D101463846CD
:103BF000FCF782FB4FF07E51FCF746FB0C4920F0AE
:103C00000040884205DC07E00A483844B0F1D97F1B
:103C100002D90AFA04F00543641C032CCCDB2846C5
:103C2000AFE70000300000200000C84154E3853FAA
:103C3000295C0F3E0000E0BE90F90010002902DD73
:103C40004FF00000704702DA4FF00400704790F91F
:103C50000110002902DD4FF00100704702DA4FF039
:103C60000500704790F90200002802DD4FF00200C5
:103C7000704702DA4FF0060070474FF007007047B8
:103C80001FB5FDF727F8FDF7D7FBFDF79DFBFDF707
:103C9000B1FB00F077FE284C274A1832111F081F8D
:103CA000FEF7ACFC244A2070921D911E881EFEF780
:103CB000B1FD2178204A08440C322070911E881EE4
:103CC000FEF7CBFD2178084420701B480E30FEF72C
:103CD000DDFD2178084410F0FF002070DCD1A069E0
:103CE000FCF701FC074688466069FCF7FCFB0546CB
:103CF0000E462069FCF7F7FB8DE8E00102460B4613
:103D00000EA0FDF727FCB4F90630B4F90420B4F98D
:103D1000021013A0FDF71EFCB4F90C30B4F90A2010
:103D2000B4F9081017A0FDF715FCB4F90E101EA089
:103D3000FDF710FCB0E70000000000207069743A45
:103D400020252E32662C20726F6C3A20252E32668A
:103D50002C207961773A20252E32662C2000000035
:103D60006163635F783A2025642C206163635F7927
:103D70003A2025642C206163635F7A3A2025642C05
:103D8000200000006779725F783A2025642C206754
:103D900079725F793A2025642C206779725F7A3ACC
:103DA0002025642C2000000074656D703A20256485
:103DB0000D0A00002DE9F041124C20F00101002510
:103DC00094F8240010B10020BDE8F081A07A4FF0F3
:103DD000FF3668B10840277C2074884200D0354601
:103DE00041B1012000F050FE00F062FA38B12774B2
:103DF0003046E9E7207D00B1012000F045FE28466D
:103E0000E2E70000300000200D494A7A42B1012A61
:103E100008D0022A0FD0032A0FD04FF0FF3070478E
:103E2000022200E004220270C97C11B11106C90D02
:103E30000170002070470822F5E71022F3E7000028
:103E4000300000200F494A7A42B1012A09D0022AE3
:103E500011D0032A12D04FF0FF3070474FF4804248
:103E600001E041F69C720280C97C11B1C2F34E019F
:103E70000180002070474FF48052F4E74FF4006255
:103E8000F1E70000300000200B49097A39B101291F
:103E900007D002290AD003290BD0002103E0FA2120
:103EA00001E04FF4FA710180002070474FF47A71FD
:103EB000F9E74FF4FA61F6E7300000200A49097A81
:103EC00041B1012908D002290AD003290AD04FF0B4
:103ED000FF307047054900E0054901600020704748
:103EE0000449FAE70449F8E73000002000000343E2
:103EF0000000834233330342333383410C49C97A90
:103F0000072913D2DFE801F01204060A0C0E100094
:103F1000BC2100E062210180002070472A21FAE7DD
:103F20001421F8E70A21F6E70521F4E70021F2E77A
:103F300030000020054991F8242012B14FF0FF30E5
:103F40007047C989018000207047000030000020C0
:103F50002DE9FC41464C80208DF8000020686B461E
:103F60000122817C60680078FEF7FDFE4FF0FF378C
:103F7000002875D16420FEF737FF00258DF800502A
:103F800020686B460122817C60680078FEF7EBFEBA
:103F9000002865D120686B460622817D6068007824
:103FA000FEF714FE00285BD19DF805009DF8031074
:103FB000C007400F01F0010140EA41009DF80110E7
:103FC0004FF0010601F00101084304D0012831D06F
:103FD000022810D044E020686B460122C178606856
:103FE0000078FEF7F3FDD8BB9DF8000010F00F003D
:103FF00036D004281ED0E574FF2004F80A0F4FF6CF
:10400000FF7104F8020C04F8010C6070A180A0712B
:104010002072A67026766576E572A572E560256148
:104020006561A576E576A5834FF4FA6000F046FB5E
:10403000B0B901E0E674DFE7022000F061FA78B978
:104040002A2000F0A3FB58B9322000F0D5FB38B984
:104050000020FFF7AFFE18B9002000F085FA10B17C
:104060003846BDE8FC81002000F006FC0020F8E79F
:10407000300000202DE9FF4FDFF89480064685B020
:1040800098F8250015460F464FF0FF39B0BBAFB387
:10409000002420E0301B102800DD102080B2834671
:1040A0003A1901469246204600F042FC30BB6A466F
:1040B0005946204600F0D2F800BB50465A466946A1
:1040C000FCF783F820B16FF0010009B0BDE8F08F74
:1040D00004EB0B0084B2B442DCD3280A8DF8100044
:1040E0008DF81150D8F80000444604AB817ED8F812
:1040F000040002220078FEF736FE08B14846E4E7E5
:10410000012084F825000898E0840020DDE7000005
:10411000300000202DE9F84305464FF0FF392828EC
:1041200044D80727284C00267DB1012000F0FCFA76
:1041300020208DF800004FF00108012D17D0052D2B
:1041400018D88DF8018005201FE0002000F0ECFA5F
:104150008DF800608DF8017020686B460222817C2A
:1041600060680078FEF7FFFD00BB267529E08DF83A
:104170000160E8E7142D04D802208DF801000A2020
:1041800003E003208DF80100142000F0FFFA9DF8F1
:1041900001006B4607EB80108DF8010020680222B9
:1041A000817C60680078FEF7DEFD10B14846BDE80E
:1041B000F8830820A072267384F814800020FFF78B
:1041C000F9FD0020F3E70000300000202DE9F8435E
:1041D000214C0646174694F8240089464FF0FF38D4
:1041E00090B3A07A80B320686B460222817A60681F
:1041F0000078FEF7EBFC38BBBDF8000045BAB542CD
:1042000002D2002038701FE060684188B5EB510F82
:1042100011D9216800786B46497C0122FEF7D6FC53
:1042200090B99DF80000C00605D500F041F86FF088
:104230000100BDE8F8832068F2B24B46C17A60689D
:104240000078FEF7C3FC08B14046F2E7B5FBF6F094
:10425000401E38700020ECE730000020F8B5160052
:104260000D464FF0FF371FD0104CA17AE1B1010A83
:104270008DF80010C0B28DF80100411960684289C4
:10428000914211D8216800786B46097E0222FEF720
:104290006AFD48B92068EAB23346417D606800781B
:1042A000FEF794FC002800D03846F8BD300000200E
:1042B000F8B5564C4FF0FF36A07A00287DD0002587
:1042C0008DF8005020686B460122C17B6068007841
:1042D000FEF749FD002870D120686B460122417924
:1042E00060680078FEF73FFD002866D120686B46C5
:1042F0000122017960680078FEF735FD00285CD165
:1043000094F82400E0B30C208DF8000020686B4680
:104310000122017960680078FEF725FD002872D13E
:104320003220FEF761FDC0208DF80000A07AC007A2
:1043300002D0E0208DF8000020686B460122017950
:1043400060680078FEF70FFD00285CD1607C18B132
:1043500002208DF8000001E08DF8005020686B46C7
:104360000122C17B60680078FEF7FDFC28BB8DF858
:10437000005020686B4601224179606800783EE079
:10438000FFE704208DF8000020686B4601220179C8
:1043900060680078FEF7E7FC78B9A07C90B9A07A55
:1043A000C0070FD05FF060008DF8000020686B46FA
:1043B000012201796068007800E024E0FEF7D3FC78
:1043C00008BB01E04020EFE73220FEF70DFD607CE6
:1043D00018B101208DF8000001E08DF80050206830
:1043E0006B460122C17B60680078FEF7BCFC50B9C7
:1043F0002068064B01224179606810330078FEF78F
:10440000B2FC002800D03046F8BD0000300000208B
:104410002DE9F047394C82468AB094F824000F46C3
:1044200020B1002000F00EF9012600E0002607A8C8
:10443000FFF72AFD06A8FFF7E7FC09A8FFF75EFDD6
:1044400008A8FFF777FD94F80A9094F810800025EB
:10445000002239465046FFF7FBF910B16D1C022DC2
:10446000F6DB022D1AD00025012203A96846FFF7CA
:10447000EFF910B16D1C022DF6DB022D0ED003A951
:104480003846FDF773FDC7B269465046FFF76AFB31
:1044900010F0FF0F4FF0000502D002E0002503E00E
:1044A00001250FB945F00205FF2020726072E0720D
:1044B0004FF6FF71E181A072207401202073BDF8D6
:1044C0001C0000F0FBF89DF8180000F019F8BDF88A
:1044D000240000F05BF9BDF8200000F08DF948469B
:1044E00000F0CAF94046FFF765FC16B1012000F064
:1044F000A9F80AB02846BDE8F08700003000002087
:1045000038B5184C4FF0FF35A17A19B3022806D000
:10451000042806D008280ED010281BD10DE000205A
:1045200000E008208DF80000607A9DF80010B0EBE4
:10453000D10F04D005E01020F4E71820F2E70020A6
:1045400038BD20686B460122C17960680078FEF7AB
:104550000AFC08B1284638BD9DF80000C00860720A
:10456000EDE7000030000020F8B5354C0546A07C92
:10457000A84201D10020F8BD31484FF0FF366B460C
:10458000D0E900104FF001020979007835B3FEF749
:104590001DFB70BB9DF800006B4620F020008DF8DD
:1045A000000020680122017960680078FEF7DBFBDB
:1045B000F8B90320FEF718FC02208DF8000094F8EB
:1045C000220078B382202BE020686B460122017D17
:1045D00060680078FEF7C7FB58B92EE0FEF7F6FAE0
:1045E00038B9A07AC0079DF8000003D040F0200041
:1045F00002E00CE020F020008DF8000020686B46FF
:104600000122017960680078FEF7ADFB08B1304601
:10461000F8BD0320FEF7E8FB94F8220000B18020EB
:104620008DF8000094F823000028CDD09DF80000FC
:1046300040F030008DF80000C6E7A5749AE700004E
:104640003000002038B51C4C94F8241081421DD055
:10465000002500B394F82500D0B1002000F014FA32
:104660000020FFF781FFE08C00F0C6F88DF80050C5
:1046700060686B46012200782321FEF774FB01205D
:1046800084F8240000F000FAFFF712FE002038BD85
:104690004FF0FF3038BD002000F0F6F9207C8DF897
:1046A000000060686B46012200782321FEF75BFB67
:1046B00084F82450E8E700003000002038B5194C99
:1046C0004FF0FF35A17A31B3FA2809D0B0F5FA7F5F
:1046D00008D0B0F57A7F0FD0B0F5FA6F1BD10DE09E
:1046E000002000E008208DF80000207A9DF80010DE
:1046F000B0EBD10F04D005E01020F4E71820F2E76A
:10470000002038BD20686B460122817960680078FE
:10471000FEF729FB08B1284638BD9DF80000C00807
:104720002072EDE73000002038B5174C054694F8AC
:104730002300A84201D1002038BD0DB1302000E097
:1047400000208DF80000A07C28B19DF8000040F00A
:1047500002008DF8000094F8220028B19DF80000B6
:1047600040F080008DF8000020686B460122017D3A
:1047700060680078FEF7F7FA10B14FF0FF3038BDEF
:1047800084F82350D7E700003000002038B5194CDA
:104790004FF0FF35A17A31B3BC2801D3012010E0DE
:1047A000622801D302200CE02A2801D3032008E06C
:1047B000142801D3042004E00A2801D3052000E0D6
:1047C00006208DF80000E07A9DF80010884201D1A3
:1047D000002038BD20686B4601228178606800782F
:1047E000FEF7C1FA08B1284638BD9DF80000E07216
:1047F000EEE7000030000020F8B51E4D04464FF0F3
:10480000FF37A87A48B395F8240030BB287D4FF4D1
:104810007A7648B164B1282C03D8E0B2FFF77AFC6D
:1048200026E00020FFF776FC042C05D2042406E0E5
:104830000020FFF76FFCF9E7B44200D93446B6FB1D
:10484000F4F0401E8DF8000028686B460122417884
:1048500068680078FEF787FA08B13846F8BD9DF819
:104860000000401CB6FBF0F0E8814008FFF78EFF27
:104870000020F8BD30000020F8B5054610F0700F9C
:104880004FF0000601D0012004E015B18DF8006062
:1048900002E040208DF80000244C6B460122206885
:1048A000817C60680078FEF75EFA4FF0FF3760BBEE
:1048B0009DF8000020F0400020738DF8006068062D
:1048C00002D404208DF80000A80605D49DF800004D
:1048D00040F002008DF80000E80605D49DF80000C5
:1048E00040F001008DF80000280705D49DF8000075
:1048F00040F038008DF8000020686B460122C17C32
:1049000060680078FEF72FFA10B1A6723846F8BD3D
:1049100025B1082D02D00020FFF706FFA5722675ED
:104920003220FEF761FA0020F8BD000030000020C0
:10493000F8B516000D464FF0FF371FD0104CA17A86
:10494000E1B1010A8DF80010C0B28DF801004119E3
:1049500060684289914211D8216800786B46097ECF
:104960000222FEF700FA48B92068EAB23346417DD8
:1049700060680078FEF7F7F9002800D03846F8BDE7
:104980003000002010B51BA0FCF7E4FD4820FEF726
:104990001DFAFEF7DFF84FF47A7470B11AA0FCF735
:1049A000D9FD05E018A0FCF7D5FD2046FEF71CFA5E
:1049B000FEF7D0F80028F5D102E01AA0FCF7CAFDF6
:1049C000FDF7EAFE10F0FF0F0ED01EA0FCF7C2FDAF
:1049D00005E01CA0FCF7BEFD2046FEF705FAFDF73A
:1049E000DBFE0028F5D110BDBDE810401DA0FCF78E
:1049F000B1BD00006D795F696E69742072756E6E6D
:104A0000696E6720210D0A0041544B2D4D533630FD
:104A1000353020696E6974206661696C6564210DAA
:104A20000A00000041544B2D4D533630353020697B
:104A30006E69742073756363657373656421200DFB
:104A40000A00000041544B2D4D5336303530204480
:104A50004D5020696E6974206661696C6564210D32
:104A60000A00000041544B2D4D5336303530204460
:104A70004D5020696E697420737563636573736547
:104A80006421200D0A000000F8B5144C01462246AE
:104A900094F82460D2E9000200235D1E56B179B17A
:104AA000022111E0C17B10786B460122FEF75BF911
:104AB00068B90EE0A67A56B111B1617C61B902E025
:104AC0008DF80030EEE701218DF80010EAE7284666
:104AD000F8BD9DF8000060740020F8BD3000002093
:104AE0002DE9F04106460F46FBF797FF041E0D46E1
:104AF00018BF0120284320F00040C0F17F6000F182
:104B0000E040C00F0ED0301C18BF0120384320F009
:104B10000040C0F17F6000F1E040C00F04BF012001
:104B2000FCF7C4FD20462946BDE8F08101020203DE
:104B30000405060708090A0B0C0D0E0F10100000E3
:104B4000000000000000010203040607080900003D
:104B500000000102030475191A0C6A231B1C1F2094
:104B60007274433B4138393A6B6C376F06246D6E73
:104B700070006800000476005401F7FD0001000099
:104B8000830000000008000000010018320005004A
:104B9000000020410000D242295C0F3E9A99993EC4
:104BA0003333733F295C0F3E000070000000002487
:104BB000000000020003000000650054FFEF000049
:104BC000FA80000B12820001030C30C30E8C8CE9BA
:104BD00014D5400213710F8E3883F8833000F883A8
:104BE000258EF8833000F883FFFFFFFF0FFEA9D664
:104BF000240004001A8279A10000003CFFFF00009D
:104C00000010000038836FA2003E03304000000017
:104C100002CAE3093E8000002000000000000000FE
:104C20004000000060000000000C0000000C186E46
:104C3000000006920A16C0DFFFFF0256FD8CD377F4
:104C4000FFE1C496E0C5BEAA00000000FFFF0B2BE9
:104C500000001657000003594000000000001DFA34
:104C600000026C1D000000003FFFDFEB003EB3B60A
:104C7000000D227800002F3C00000000001942B512
:104C8000000039A20000B365D90E9FC91DCF4C3476
:104C900030000000500000003BB67AE800640000DD
:104CA00000C8000000000000100000001000FA9290
:104CB0001000225E000D229F000100000032000063
:104CC000FF46000063D400001000000004D600007E
:104CD00004CC000004CC0000000010720000004072
:104CE00000000000000000000006000200050007B0
:104CF000000000000064000000000000000000054B
:104D0000000500640020000000000000000000001A
:104D1000000040000000030000000032F89800008E
:104D2000FF650000830F0000FF9BFC0000000000F7
:104D30000000000000000000000000000000000073
:104D40000000000000000000000000000000000063
:104D500000000000000010004000000000000006FD
:104D60000000B26A000200000001FB83006800003E
:104D700000D9FC007CF1FF8300000000006500000A
:104D8000006403E800640028000000250000000023
:104D900016A000000000100000001000002F00000E
:104DA000000001F40000100000280000FFFF458112
:104DB000FFFFFA7200000000000000000044000540
:104DC0000005BAC6004778A20000000100000000FC
:104DD00000000600000000140000254D002F706D3B
:104DE000000005AE000C02D0000000000000000032
:104DF0000000000000000000001B00000000000098
:104E00000000000000000000006400000008000036
:104E10000000000000000000000000000000000092
:104E20000000000000000000000000000000000082
:104E30000000000000000000000000000000000072
:104E40000000000000000000000000000000000062
:104E50000000000000000000000000000000000052
:104E60000000000000000000001B00000000000027
:104E700000000000000E000E00000AC70004000041
:104E800000000032FFFFFF9C00000B2B000000021F
:104E90000000000100000064FFE5000000000000C9
:104EA0000000000000000000000000010000000001
:104EB00000010000000000000001800000018000EF
:104EC00000018000002426D3000000000000000044
:104ED000000600100096003C0000000000000000EA
:104EE00000000000000000000C0A4E68CDCF7709DA
:104EF00050166759C619CE8200000000000000005D
:104F000000000000000000000000000000000000A1
:104F100017D784000300000000000000000000001C
:104F2000C7938F9D1E1B1C1900000000000000008D
:104F30000000000000000000000000000000000071
:104F40000203188500004000000000030000000379
:104F50000000000000000000400000000000000011
:104F60000000000000000000000000000000000041
:104F70000000000000000000000000000000000031
:104F8000000000000000000000000000677DDF7EE0
:104F900072902E554CF6E6880000000000000000DC
:104FA0000000000000000000D8DCB4B8B0D8B9ABF5
:104FB000F3F8FAB3B7BB8E9EAEF132F51BF1B4B87D
:104FC000B08097F1A9DFDFDFAADFDFDFF2AAC5CD6E
:104FD000C7A90CC92C97F1A989264666B28999A957
:104FE0002D557DB0B08AA896365676F1BAA3B4B2E4
:104FF00080C0B8A89711B28398BAA3F024084410CF
:105000006418B2B9B49883F1A329557DBAB5B1A398
:105010008393F0002850F5B2B6AA839328547CF10C
:10502000B9A3829361BAA2DADEDFDB819AB9AEF569
:10503000606870F1DABAA2DFD9BAA2FAB9A3829293
:10504000DB31BAA2D9BAA2F8DF85A4D0C1BBAD8347
:10505000C2C5C7B8A2DFDFDFBAA0DFDFDFD8D8F173
:10506000B8AAB38DB4980D355DB2B6BAAF8C9619A7
:105070008F9FA70E161EB49AB8AA872C547CBAA488
:10508000B08AB691325676B28494A4C808CDD8B806
:10509000B4B0F19982A82D557D98A80E161EA22CA9
:1050A000547C92A4F02C5078F184A898C4CDFCD8FC
:1050B0000DDBA8FC2DF3D9BAA6F8DABAA6DED8BA69
:1050C000B2B68696A6D0F3C841DAA6C8F8D8B0B46E
:1050D000B882A892F52C548898F135D9F418D8F1F3
:1050E000A2D0F8F9A884D9C7DFF8F883C5DADF6958
:1050F000DF83C1D8F40114F1A8824EA884F311D142
:1051000082F5D992289788F109F41C1CD884A8F359
:10511000C0F9D1D99782F129F40DD8F3F9F9D1D991
:1051200082F4C203D8DEDF1AD8F1A2FAF9A8849873
:10513000D9C7DFF8F8F883C7DADF69DFF883C3D8A7
:10514000F40114F198A8822EA884F311D182F5D924
:1051500092509788F109F41CD884A8F3C0F8F9D1CB
:10516000D99782F149F40DD8F3F9F9D1D982F4C471
:1051700003D8DEDFD8F1AD8898CCA809F9D982929E
:10518000A8F57CF1883ACF944A6E98DB6931DAADA4
:10519000F2DEF9D88795A8F221D1DAA5F9F417D96A
:1051A000F1AE8ED0C0C3AE82C684C3A88595C8A513
:1051B00088F2C0F1F4010EF18E9EA8C63E56F55459
:1051C000F18872F40115F19845856EF58E9E04887C
:1051D000F142985A8E9E068869F4011CF1981E11BE
:1051E00008D0F504F11E970202983625DBF9D9851F
:1051F000A5F3C1DA85A5F3DFD88595A8F309DAA56B
:10520000FAD88292A8F578F1881A849F2688982186
:10521000DAF41DF3D8879F39D1AFD9DFDFFBF9F47A
:105220000CF3D8FAD0F8DAF9F9D0DFD9F9D8F40BC1
:10523000D8F3879F39D1AFD9DFDFF41DF3D8FAFC5B
:10524000A869F9F9AFD0DADEFAD9F88F9FA8F1CCC6
:10525000F398DB45D9AFDFD0F8D8F18F9FA8CAF318
:105260008809DAAF8FCBF8D8F2AD978D0CD9A5DFCE
:10527000F9BAA6F3FAF412F2D8950DD1D9BAA6F379
:10528000FADAA5F2C1BAA6F3DFD8F1BAB2B68696B9
:10529000A6D0CAF349DAA6CBF8D8B0B4B8D8AD8452
:1052A000F2C0DFF18FCBC3A8B2B68696C8C1CBC31C
:1052B000F3B0B48898A821DB718D9D71859521D9B3
:1052C000ADF2FAD88597A828D9F408D8F28D29DA52
:1052D000F405D9F285A4C2F2D8A88D9401D1D9F4ED
:1052E00011F2D88721D8F40AD8F28498A8C801D13D
:1052F000D9F411D8F3A4C8BBAFD0F2DEF8F8F8F8AF
:10530000F8F8F8F8D8F1B8F6B5B9B08A95A3DE3C4C
:10531000A3D9F8D85CA3D9F8D87CA3D9F8D8F8F9E0
:10532000D1A5D9DFDAFAD8B18530F7D9DED8F8308F
:10533000ADDADED8F2B48C99A32D557DA083DFDFE2
:10534000DFB591A0F629D9FBD8A0FC29D9FAD8A0BD
:10535000D051D9F8D8FC51D9F9D879D9FBD8A0D0F7
:10536000FC79D9FAD8A1F9F9F9F9F9A0DADFDFDF88
:10537000D8A1F8F8F8F8F8ACDEF8ADDE8393AC2CE1
:10538000547CF1A8DFDFDFF69D2CDAA0DFD9FADB51
:105390002DF8D8A850DAA0D0DED9D0F8F8F8DB552F
:1053A000F8D8A878DAA0D0DFD9D0FAF8F8F8F8DB86
:1053B0007DF8D89CA88CF530DB38D9D0DEDFA0D0C2
:1053C000DEDFD8A848DB58D9DFD0DEA0DFD0DED8BA
:1053D000A868DB70D9DFDFA0DFDFD8F1A888902CC8
:1053E000547C98A8D05C38D1DAF2AE8CDFF9D8B012
:1053F00087A8C1C1B188A8C6F9F9DA36D8A8F9DA00
:1054000036D8A8F9DA36D8A8F9DA36D8A8F9DA36CB
:10541000D8F78D9DADF818DAF2AEDFD8F7ADFA30D7
:10542000D9A4DEF9D8F2AEDEFAF983A7D9C3C5C78D
:10543000F1889BA77AADF7DEDFA4F8849408A797DC
:10544000F300AEF29819A488C6A39488F632DFF26E
:105450008393DB09D9F2AADFD8D8AEF8F9D1DAF311
:10546000A4DEA7F1889B7AD8F38494AE19F9DAAA5E
:10547000F1DFD8A881C0C3C5C7A39283F628ADDEEB
:10548000D9F8D8A350ADD9F8D8A378ADD9F8D8F8C1
:10549000F9D1A1DADEC3C5C7D8A18194F818F2B05A
:1054A00089ACC3C5C7F1D8B8B4B09786A8319B06FC
:1054B0009907AB9728889BF00C201440B0B4B8F043
:1054C000A88A9A285078B79BA82951792470594402
:1054D0006938644831F1BBAB88002C547CF0B38B45
:1054E000B8A804285078F1B088B49726A85998BB7A
:1054F000ABB38B02264666B0B8F08A9CA8295179D6
:105500008B2951798A2470598B2058718A446938C3
:105510008B3940688A6448318B30496088F1AC002F
:105520002C547CF08CA804285078F1889726A85930
:1055300098AC8C02264666F0899CA8295179247083
:1055400059446938644831A98809205970AB113829
:105550004069A8193148608CA83C415C207C00F16E
:1055600087981986A86E767EA999882D557DD8B121
:10557000B5B9A3DFDFDFAED0DFAAD0DEF2ABF8F93A
:10558000D9B087C4AAF1DFDFBBAFDFDFB9D8B1F193
:10559000A3978E60DFB084F2C8F8F9D9DED893857E
:1055A000F14AB183A308B5839A0810B79F10D8F1C8
:1055B000B0BAAEB08AC2B2B68E9EF1FBD9F41DD895
:1055C000F9D90CF1D8F8F8AD61D9AEFBD8F40CF1EB
:1055D000D8F8F8AD19D9AEFBDFD8F416F1D8F8AD8C
:1055E0008D61D9F4F4ACF59C9C8DDF2BBAB6AEFA84
:1055F000F8F40BD8F1AED0F8AD51DAAEFAF8F1D834
:10560000B9B1B6A3839C08B9B1839AB5AAC0FD30DD
:1056100083B79F10B58B93F20202D1ABDADED8F1DB
:10562000B080BAABC0C3B284C1C3D8B1B9F38BA345
:1056300091B609B4D9ABDEB0879CB9A3DDF1B38BC9
:105640008B8B8B8BB087A3A3A3A3B28BB69BF2A348
:10565000A3A3A3A3A3A3A3A3A3F1B087B59AA3F382
:105660009BA3A3DCBAACDFB9A3A3A3A3A3A3A3A367
:10567000A3A3A3A3A3A3A3A3D8D8D8BBB3B7F1AACA
:10568000F9DAFFD9809AAA28B48098A720B797871B
:10569000A86688F07951F1902C870CA781976293C6
:1056A000F071716085940129517990A5F1284C6CB5
:1056B000870C95188578A38390284C6C886CD8F358
:1056C000A28200F210A8921980A2F2D926D8F188FD
:1056D000A84DD948D896A83980D93CD89580A83902
:1056E000A68698D92CDA87A72CD8A8899519A980DD
:1056F000D938D8A88939A980DA3CD8A82EA83990F9
:10570000D90CD8A8953198D90CD8A809D9FFD801B7
:10571000DAFFD89539A9DA26FFD890A80D8999A87B
:1057200010809821DA2ED88999A83180DA2ED8A84D
:1057300086963180DA2ED8A8873180DA2ED8A882D2
:1057400092F34180F1D92ED8A882F31980F1D92E95
:10575000D882ACF3C0A28022F1A62EA72EA922984F
:10576000A829DAACDEFFD8A2F22AF1A92E8292A8EB
:10577000F23180A696F1D900AC8C9C0C30ACDED016
:10578000DEFFD88C9CACD010ACDE8092A2F24C82B2
:10579000A8F1CAF235F19688A6D900D8F1FF000029
:1057A000555555555555C53F7D6FEB0312D6D4BFA2
:1057B0005544880E55C1C93F3B8F68B52882A4BFA8
:1057C00088B20175E0EF493F09F7FD0DE13D023F69
:1057D0004B2D8A1C273A03C0C88A599CE52A0040F1
:1057E00059018D1B6C06E6BF82922EB1C5B8B33F3E
:1057F0004FBB610567ACDD3F182D4454FB21E93FE9
:105800009BF681D20B73EF3F182D4454FB21F93FD7
:10581000E2652F227F2B7A3C075C143326A6813C5D
:10582000BDCBF07A8807703C075C143326A6913C08
:10583000C4EB98999999C9BF711623FEC671BCBF74
:105840006D9A74AFF2B0B3BF9AFDDE522DDEADBFDC
:105850002F6C6A2C44B4A2BF0D5555555555D53FF4
:10586000FF8300922449C23F6E204CC5CD45B73F0F
:10587000513DD0A0660DB13FEB0D76244B7BA93F87
:1058800011DA22E33AAD903F000000000000000072
:10589000B058000800000020700000008C160008BE
:1058A0002059000870000020580400009C160008D1
:1058B00000000000000000000000000000000000E8
:1058C00000000000000000000000000001000000D7
:1058D00010000000000000000024F40000000000A0
:1058E000564B0008724B000800000000000000004A
:1058F00000000000000000000000000000000000A8
:105900000000000000000000804B000801000000C3
:105910000100000001000000000000000000000085
:04000005080000ED02
:00000001FF
